:03000000020016E5
:0C001600787FE4F6D8FD75812002005DC3
:1001BE0048656C6C6F2045766572796F6E65005779
:0F01CE00656C636F6D6520746F2053445521007D
:03021500010800DD
:04019C007F057E005D
:1001A000D3EF9400EE940040147D6E7C00ED1D7042
:0D01B000011CED4C70F7EF1F70E61E80E3A0
:0101BD00221F
:1001F900C297D296D29500000000E5A0339200C2C2
:0302090095A200BB
:01020C0022CF
:090177007FF47E011201A07F0C4F
:100180001201F940FBC297C296C29500008FA000F1
:0C019000000000D29500000000C2952283
:0B0006007F011201800F7E000201A0AC
:1001DD001201F940FBD297C296C29500008FA00084
:0C01ED00000000D29500000000C2952226
:10014A007F0F7E001201A07F381201807F057E009A
:10015A0012017B12019C7F061201801F7E00120190
:0D016A00A07F011201807F057E000201A030
:100116007FE87E031201A07F081201801201777F1B
:10012600F47E011201A07F081201801201777FF48C
:100136007E011201A07F081201801201777FF47EF2
:04014600010201A011
:1000A200D2AFD2A8D288D2AAD28A7F0A7E00120107
:1000B200A012014A12000612019CE5086401704474
:1000C20012000612019C7F80120180E4FBEB90017A
:1000D200BE93FF600D1201DD7F647E001201A00B52
:1000E20080EB7FC0120180E4FBEB9001CD93FF60B7
:1000F2000D1201DD7F647E001201A00B80EB120164
:1001020016E4F508E508B402B112000612019CE4F7
:04011200F50880A6C6
:0300030002020DE9
:04020D00750801323D
:03001300020211D5
:040211007508023238
:100022000200A2E493A3F8E493A34003F68001F252
:1000320008DFF48029E493A3F85407240CC8C333DF
:10004200C4540F4420C8834004F456800146F6DFAE
:10005200E4800B0102040810204080900215E47E27
:10006200019360BCA3FF543F30E509541FFEE493A3
:10007200A360010ECF54C025E060A840B8E493A36A
:10008200FAE493A3F8E493A3C8C582C8CAC583CA95
:10009200F0A3C8C582C8CAC583CADFE9DEE780BE4D
:0102180000E5
:00000001FF
