:0300000002000EED
:0C000E00787FE4F6D8FD758120020055D3
:1001B00048656C6C6F2045766572796F6E65005787
:0F01C000656C636F6D6520746F2053445521008B
:03020E00010800E4
:04018E007F057E006B
:10019200D3EF9400EE940040147D6E7C00ED1D7050
:0D01A200011CED4C70F7EF1F70E61E80E3AE
:0101AF00222D
:1001EB00C297D296D29500000000E5A0339200C2D0
:0301FB0095A200CA
:0101FE0022DE
:090169007FF47E011201927F0C6B
:100172001201EB40FBC297C296C29500008FA0000D
:0C018200000000D29500000000C2952291
:0B01FF007F011201720F7E00020192CE
:1001CF001201EB40FBD297C296C29500008FA000A0
:0C01DF00000000D29500000000C2952234
:10013C007F0F7E001201927F381201727F057E00C4
:10014C0012016D12018E7F061201721F7E001201C8
:0D015C00927F011201727F057E0002019268
:100108007FE87E031201927F081201721201697F53
:10011800F47E011201927F081201721201697FF4C4
:100128007E011201927F081201721201697FF47E2A
:04013800010201922D
:10009A00D2AFD2A8D288D2AAD28A7F0A7E0012010F
:1000AA009212013C1201FF12018EE5086401703EB2
:1000BA007F80120172E4FBEB9001B093FF600D1296
:1000CA0001CF7F647E001201920B80EB7FC0120188
:1000DA0072E4FBEB9001BF93FF600D1201CF7F64C6
:1000EA007E001201920B80EB120108E4F508E50884
:0E00FA00B402B71201FF12018EE4F50880ACCB
:03000300020006F2
:040006007508013246
:03000B0002020AE4
:04020A00750802323F
:10001A0002009AE493A3F8E493A34003F68001F262
:10002A0008DFF48029E493A3F85407240CC8C333E7
:10003A00C4540F4420C8834004F456800146F6DFB6
:10004A00E4800B010204081020408090020EE47E36
:10005A00019360BCA3FF543F30E509541FFEE493AB
:10006A00A360010ECF54C025E060A840B8E493A372
:10007A00FAE493A3F8E493A3C8C582C8CAC583CA9D
:10008A00F0A3C8C582C8CAC583CADFE9DEE780BE55
:0102110000EC
:00000001FF
