:030000000200AB50
:0C00AB00787FE4F6D8FD7581200200F299
:06000E00010900010800D9
:040209007F057E00EF
:10020D00D3EF9400EE940040147D6E7C00ED1D70D4
:0D021D00011CED4C70F7EF1F70E61E80E332
:01022A0022B1
:1002A100C2A0D2A1D2A200000000A2979200C2A2D5
:0202B100A200A9
:0102B3002228
:100269001202A140FBC2A0C2A1C2A200008F90004D
:0C027900000000D2A200000000C2A2227F
:100285001202A140FBD2A0C2A1C2A200008F900021
:0C029500000000D2A200000000C2A22263
:1001B7001202097F011202691202097F06120269FF
:1001C7001F7E0012020D7F0C1202691202097F388E
:0A01D7001202697F0F7E0002020D84
:10024B00758921758DEC758BECD2AFD2ABD28E75D7
:0E025B008C3C758AB0D2A9D28CC2A4C2A52256
:03000B0002022BC3
:10022B00C0E0C0D0C2A9758C3C758AB00509E50940
:10023B00B43206750801750900D2A9D0D0D0E032CE
:03001B00020003DD
:07000300C2ABB2A3D2AB3285
:1001E100D2A47F017E0012020DC2A430A7FD75804A
:1001F100FF7F017E0012020DD2A5AB80C2A57F0454
:070201007E0012020DAF03A5
:0102080022D3
:04018C00AB07AA060D
:100190007F821202697C007D0AAF03120137EF24CF
:1001A00030FF120285AE02AF037C007D0A120137D8
:0701B000ED2430FF0202857F
:10001E00E4F50AF50BF582F583FA1201B71202091F
:10002E0012024BC2A37F801202697F661202857F85
:10003E003A1202857F841202697F481202857F7A06
:10004E00120285850A83850B821201E17583008F6A
:10005E0082C3E50B9480E50A9400400BD3E58294AD
:10006E0080E58394004016D3E50B9480E50A940056
:10007E005015C3E5829480E5839400400A0AD2A607
:10008E000000000000C2A6E508B401B7E4F508EAD6
:0D009E00C313FAFF7E0012018CE4FA80A665
:1000B70002001EE493A3F8E493A34003F68001F241
:1000C70008DFF48029E493A3F85407240CC8C3334A
:1000D700C4540F4420C8834004F456800146F6DF19
:1000E700E4800B010204081020408090000EE47E9B
:1000F700019360BCA3FF543F30E509541FFEE4930E
:10010700A360010ECF54C025E060A840B8E493A3D4
:10011700FAE493A3F8E493A3C8C582C8CAC583CAFF
:10012700F0A3C8C582C8CAC583CADFE9DEE780BEB7
:0100140000EB
:10013700BC000BBE0029EF8DF084FFADF022E4CCAC
:10014700F875F008EF2FFFEE33FEEC33FCEE9DEC75
:10015700984005FCEE9DFE0FD5F0E9E4CEFD22EDBB
:10016700F8F5F0EE8420D21CFEADF075F008EF2F05
:10017700FFED33FD4007985006D5F0F222C398FDF6
:050187000FD5F0EA2293
:00000001FF
