:10007D0000804020180680000718204080000000F6
:10008D000100207028262120202438600001010065
:10009D000000FE0242424242FA42424242C2020085
:1000AD0080601F804020180601004080403F000006
:10014F00D3EF9400EE940040147D6E7C00ED1D7093
:0D015F00011CED4C70F7EF1F70E61E80E3F1
:01016C002270
:10016D00C2A2D2A1E4F580D2A000AF80C2A05307F5
:0A017D0080EF7003D38001C350EA45
:010187002255
:10018800AE0712016DC2A2C2A18E80D2A00000C229
:02019800A022A3
:0601C1004307B8020188AB
:0601C7004307C00201889D
:0901B80053073F43074002018890
:0601CD0043073E02018819
:10019A00AE0712016DD2A2C2A18E80D2A00000C207
:0201AA00A02291
:1000EC00EF14600B14601124027017C2A3800BC2B2
:1000FC00A3000000D2A48007D2A3000000C2A40079
:03010C00000022CE
:100130001200ECE4FDAF051201C1E4FF1201B8E4C6
:0E014000FCE4FF12019A0CBC40F70DBD08E76D
:01014E00228E
:10010F0012016DE4FF1200EC1201CDE4FF1200ECBE
:10011F000F1201CDE4FF1200EC120130E4FF0201D7
:01012F00C708
:02000300AC034C
:100005001200EC53043FAF051201C1AF041201B851
:10001500E4FBFA75F020E50DA42BF582E5F03AF541
:1000250083E582247DF582E5833400F583E493FF3F
:1000350012019A0BBB00010AEB64104A70D5ED045E
:10004500FF1201C1AF041201B8E4FAFB75F020E517
:100055000DA42BF582E5F03AF583E582248DF58232
:10006500E5833400F583E493FF12019A0BBB00018D
:070075000AEB64104A70D58C
:01007C002261
:1000BD0012010FE4FF120130AF091201C7E4F50D73
:1000CD00FBFD7F01120003750D017B107F011200F6
:0F00DD0003E4FF1200EC7F327E0012014F80D946
:030000000201AC4E
:0C01AC00787FE4F6D8FD75810D0200BDDF
:00000001FF
