:1002650054484953204953204120544553542100B3
:070222007FFF1202297FFF9C
:100229007E08C294EF339296EF25E0FFD294DEF276
:02023900D2965B
:01023B0022A0
:100252007E08C294D294EF25E0FF30950343070154
:02026200DEF0CC
:010264002277
:10023C00E4FC120252AD07ED6009ED640160040CA0
:05024C00BC09EFAF0545
:01025100228A
:1001E300EF4440FF120229AF12120229AF13120289
:1001F30029AF14120229AF15120229AF16020229E0
:10010F00E4F508F509F50AF50B7D01D297FC7FFFA1
:10011F001202290CBC0AF7C297E4F515F514F51372
:10012F00F512751695FF1201E312023CAD07ED644F
:10013F000160037F0022BD0124D2977FFF120229A5
:10014F00C2977515007514C07513FF7512007516DB
:10015F00FF7F011201E312023CAD0780D9D2977FD6
:06016F00FF1202297F01CE
:010175002267
:0E0003008B088A09890A8F0E8E0D8D0C8C0BCE
:10001100C2978F158E148D138C127516FF7F1812CF
:1000210001E312023CEF706E1202227FFF120229DD
:100031007FFE120229E4FDFCC3ED9510EC950F50F3
:100041001CAB08050AE50AAA097002050914F91290
:1000510001B8FF1202290DBD00010C80DBC3EC9435
:1000610002500CE4FF1202290DBD00010C80EE12BA
:100071000222120252AD07120252EF60FA53050F2B
:10008100D2977FFF120229BD0B037F0022BD05031A
:080091007F01227F00227F00A5
:010099002244
:0E009A008B088A09890A8F0E8E0D8D0C8C0B37
:1000A800C2978F158E148D138C127516FF7F11123F
:1000B80001E312023CEF704C120252BFFEFAE4FD5B
:1000C800FCC3ED9510EC950F501C120252AB0805BD
:1000D8000AE50AAA097002050914F9EF1201D10DFF
:1000E800BD00010C80DBC3EC9402500A1202520DD1
:1000F800BD00010C80F0120252120252D297120275
:06010800527F01227F007E
:01010E0022CE
:0E027500759840758920758DFDD28EC2992234
:100203001201B8FF6018B40A0575990D80028F9921
:0F0213003099FDC299740129F9E43AFA80E22288
:1001760012027512010FEF60FA7BFF7A027965753C
:100186000F0075100F7F007E007D007C00120003BB
:100196007B017A007900750F0075100F7F007E00D5
:1001A6007D007C0012009A7B017A0079001202031E
:0201B60080FEC9
:0300000002028376
:0C028300787FE4F6D8FD75811602017644
:1001B800BB010689828A83E0225002E722BBFE0245
:0901C800E32289828A83E4932278
:1001D100BB010689828A83F0225002F722BBFE010D
:0201E100F32207
:00000001FF
