:03000000022DE8E6
:0C2DE800787FE4F6D8FD75817C022E2F68
:10000300D4D4BED49FA9D4D4BED48E9FD4D46A7E74
:100013009FA9BE77777E9F8E9F0009030C0C0C1857
:1000230009030C0C0C1809030C0C0C0C0C09030C25
:100033000C0C1800112141811222428214244484A1
:1000430018284888008040201806800007182040A0
:100053008000000001002070282621202024386021
:10006300000101000000FE0242424242FA424242C3
:1000730042C2020080601F804020180601004080B9
:10008300403F0000000000BE2A2A2AEA2A2A2A3E0C
:1000930000000000004442494949497F4949494910
:1000A300414000000004FF242424FF0400FE222218
:1000B30022FE000088482F090919AF48300F024279
:1000C300827F00008080808080808080808080802C
:1000D300808080000000000000000000000000009D
:1000E30000000000000008080808080808080808BD
:1000F3000800000010101010101010101010101035
:100103001010100000048484848484848484848490
:1001130084040000202020202020202020202020D4
:100123002020200000FC040404FC040404FC040458
:1001330004FC0000007F28242320202020212222E9
:10014300227F00000002424242C27E42424242C239
:100153000202000040404040784740404040407F1A
:100163004040400020202020202021222C2020203D
:1001730020202000004020100C0300000001020496
:1001830018600000000000FE82828282828282FE6A
:1001930000000000000000FF40404040404040FF9E
:1001A300000000000000FE22222222FE2222222240
:1001B300FE00000000000702020202FF0202020228
:1001C300070000000002020202824222120A060213
:1001D300000000000000384641404040404040409D
:1001E3004078000002E22222222222FE2222222240
:1001F30022E2020000FF00000804030001020C4099
:10020300807F000000020202020202FE02020202DA
:1002130002020000000000000040807F0000000098
:10022300000000000000F808080808087F88080993
:100233000AC8080080601F008080404020130C140F
:100243002340F8000000828282828282828282FEC0
:100253000000000000003F4040404040404040401C
:10026300407800000000FC0424242425F6242424E0
:10027300E404040040308F81494929190F192949A1
:100283004F81810040404444546445C6446454440F
:100293004440400000040404040404FF0404040470
:1002A3000404000080808484848484FC82828283AA
:1002B30082808000000040404040407F40404040FA
:1002C30040000000808A5222928A8680838C923179
:1002D30048848000008484444424140F1414244468
:1002E3008404000080828282828282E2A2928A86D1
:1002F30082808000000000000040807F000000003A
:1003030000000000000082828282FE82828282FEDE
:100313000000000040404040407F40404040407F5C
:1003230040404000100C04D4545455F6545454D453
:1003330004140C000000009F5232121F1232529F0D
:100343000000000000FE020201FD0000FE020202A6
:1003530002FE000000078444320F0000FF0004087F
:10036300040300000000FE82929292929292929273
:100373009282000040300F0000FF40200304081465
:10038300224040000000FE8282828282828282FEBC
:100393000000000000003F404040404040404040DB
:1003A30040780000004020180F0808F808080808E3
:1003B3000800000002020202020202FF020202021D
:1003C3000202020080808888888888FF888888885D
:1003D3008880800020201008040201FF0102040825
:1003E300102020000000F888888888FF8888888883
:1003F300F800000000001F08080808FF08080808A4
:100403001F00000002F21212927E121212FE12124A
:1004130012F2020000FF4A494848484848484949FF
:1004230049FF00000000F8080808080808FF080949
:100433000AC8080080601F010101018040211618CD
:100443002641F800000808884828190A088848083F
:1004530008080000009091894945252311081422BA
:1004630041800000002018C744444444FC444444F1
:10047300440400000404040704040404FF04040403
:1004830004040400000000FE22222222222222224F
:10049300FE0000008040300F02020202020242828C
:1004A3007F00000000F80126202022E222222222DF
:1004B30002FE000000FF00101111111F1111115055
:1004C300807F0000000202C2020202FE8282828258
:1004D300820200004040407F4040407F4040404017
:1004E30040404000080889EA1888000404FC04041A
:1004F30004FC0000020100FF018640201807408031
:10050300403F000020202020FF202020202020FF2B
:100513002020200000000000FF404040404040FFFA
:1005230000000000808080808080808080808080C8
:100533008080800000000000000000000000000038
:100543000000000000000808080808080808080858
:1005530008000000101010101010101010101010D0
:10056300101010000004848484848484848484842C
:100573008404000020202020202020202020202070
:100583002020200000FC040404FC040404FC0404F4
:1005930004FC0000007F2824232020202021222285
:1005A300227F00000002424242C27E42424242C2D5
:1005B3000202000040404040784740404040407FB6
:1005C3004040400020202020202021222C202020D9
:1005D30020202000004020100C0300000001020432
:1005E30018600000808080808040FF4040402020D1
:1005F300202000000000000000003F404040404039
:10060300407800000000000000FC0000007E800035
:100613000000000000806018070000000000030CC9
:10062300304080000010101010FF10101010F00068
:1006330000000000804020180700000000003F4039
:100643004040780040404040404040FF40404040F0
:100653004040400000000000000000FF00000000D8
:10066300000000000020100894A7444444A4940C04
:1006730000000000020201012024244448881001E4
:100683000102020000FE2222FE4048487F484848FB
:100693007F484800807F0282FF0000FF49494949A3
:1006A30049FF000088681FC80810C85452D112942B
:1006B30008D01000091909FF0500FF1292FF005F1F
:1006C300807F0000000000000001E21CE000000049
:1006D30000000000804020100C03000000030C30D9
:1006E30040808000000000FE82828282828282FE3D
:1006F30000000000000000FF40404040404040FF39
:10070300000000000004FF242424FF0400FE222232
:1007130022FE000088482F090919AF48300F024212
:10072300827F000000FC848484FC001010101010F1
:10073300FF101000003F1010103F00000106408022
:100743007F00000000F8010600F0121212F202020C
:1007530002FE000000FF0000001F1111111F0040E6
:10076300807F0000404042CC0040A09E8282829E57
:10077300A02020000000003F908840432C10284612
:1007830041808000001715D55557557D555755D5D0
:10079300151700004040407F555555555555557F19
:1007A3004040400000F8012220222AF22222222285
:1007B30002FE000000FF00001F01017F09110F402E
:1007C300807F000020102CE7242400F01010FF107D
:1007D30010F000000101017F211100070202FF0256
:1007E30002070000000000E0000000FF00000020FE
:1007F30040800000080403000040807F00000000E8
:1008030000010E00100C445454FC555654FC54542F
:1008130044140C00111109050321254549910305D1
:100823000911110020202020202020FF202020203B
:100833002020200080804020100C0300030C102097
:1008430040808000100C445454FC555654FC5454BE
:1008530044140C0011110905032125454991030591
:10086300091111000010109010101116101010D063
:100873001010000040404040435C4040504C434017
:100883004040400040445454D454745F5454D454AE
:100893005444400004040201FE9292929292FE019B
:1008A3000204040002E22222222222FE2222222227
:1008B30022E2020000FF00000912007F000912403B
:1008C300807F000000202020A06000FF6080402087
:1008D30018000000201008060140807F0001020478
:1008E3000810100000E000FF102004E42425262453
:1008F30024E40400010000FF0020100D41817F016A
:100903000509300024A424FF140084543F44047CCC
:1009130080E000000040C15E5253527F5252525E4B
:1009230060C1000040445454D454745F5454D454AC
:100933005444400004040201FE9292929292FE01FA
:1009430002040400804020908886808080838C107D
:1009530020408000008040201807004080403F0076
:10096300000000001060028C00445454547F54541F
:100973005444400004047E010000FF1515155595ED
:100983007F00000000FC444444FC0000FE222222BD
:1009930022FE0000000F0404048F40300F020242C5
:1009A300827F0000001088844320100C10204182B5
:1009B30084080000010100FE42424242424242FEDC
:1009C3000001010002E22222222222FE222222220E
:1009D30022E2020000FF00000912007F000912401A
:1009E300807F00000010109010101116101010D00E
:1009F3001010000040404040435C4040504C434096
:100A030040404000000101FD55555755555555FDD2
:100A130001010000809088454F55252525554D45FA
:100A230080808000000000E0000000FF0000002044
:100A330040800000080403000040807F00000000A5
:100A430000010E001060028C0024242FE42424E40F
:100A53002F24240004047E0100FF1109071909074C
:100A630049917F00848484849F84A4C484849F8464
:100A730084848400000000007F40404040404040A8
:100A8300404000002424A4FE232200F01010FF1095
:100A930010F00000080601FF010600070202FF0232
:100AA30002070000000101FD55555755555555FDE9
:100AB30001010000809088454F55252525554D455A
:100AC3008080800000024262524A464242425262A1
:100AD300C2020000404044444444447F44444444EC
:100AE30044404000000000E0000000FF0000002040
:100AF30040800000080403000040807F00000000E5
:100B030000010E000000005F5555F5555555955FE2
:100B13000000000011110909FD555757555555FDA2
:100B23000101010020202020202020FF2020202060
:100B33002020200080804020100C0300030C102094
:100B4300408080000000005F5555F5555555955F71
:100B53000000000011110909FD555757555555FD62
:100B6300010101000010109010101116101010D088
:100B73001010000040404040435C4040504C434014
:100B8300404040002424A4FE2322807000FF008004
:100B930040300000080601FF018640300E010618B0
:100BA300204080000080609F0808F80000FF1020AC
:100BB30040800000814020130C132020405F404000
:100BC300404140000000005F5555F5555555955F70
:100BD3000000000011110909FD555757555555FDE2
:100BE300010101000000F808080C0A0908080808B8
:100BF300F80000000000FF414141414141414141B2
:100C0300FF000000100C05555555057F05D55555BA
:100C130005140C0080F7857D5557000AE9ABA5A59F
:100C2300EB0808002424A4FE2322807000FF008028
:100C330040300000080601FF018640300E0106180F
:100C430020408000804020908886808080838C10A4
:100C530020408000008040201807004080403F0073
:100C630000000000100C445454FC555654FC5454DA
:100C730044140C001111090503212545499103056D
:100C830009111100100C05555555057F05D555550E
:100C930005140C0080F7857D5557000AE9ABA5A51F
:100CA300EB080800100C05555555057F055555559E
:100CB30005140C0020120A06FF0A1200FF555555B1
:100CC30055FF000000FE0222DA8690485724A45400
:100CD3004C84800000FF0810080718121212FF123C
:100CE300121210000010109010101116101010D0D6
:100CF3001010000040404040435C4040504C434093
:100D0300404040000020100894A7444444A4940C9D
:100D1300000000000202010120242444488810013D
:100D230001020200000000E0000000FF00000020BC
:100D330040800000080403000040807F00000000A2
:100D430000010E00100C05555555057F05555555E9
:100D530005140C0000004149494949494949494999
:100D6300FF00000020202020202020FF2020202022
:100D73002020200080804020100C0300030C102052
:100D830040808000100C05555555057F0555555578
:100D930005140C0000004149494949494949494959
:100DA300FF0000000020100894A7444444A4940CBE
:100DB300000000000202010120242444488810019D
:100DC3000102020000024262524A46424242526219
:100DD300C2020000404044444444447F44444444E9
:100DE3004440400000E010080810E000000F10200D
:100DF30020100F0000001010F80000000000202059
:100E03003F202000007008080808F0000030282464
:100E130022213000003008080888700000182021C3
:100E230021221C000000804030F800000006052449
:100E3300243F242400F8888888080800001920200B
:100E430020110E0000E0108888900000000F112090
:100E530020201F0000180808886818000000003EC2
:100E6300010000000070880808887000001C22211F
:100E730021221C0000F008080810E00000011222E3
:100E830022110F00000000C0C0000000000000306D
:100E9300300000000000000000000000000101011C
:100EA300010101000000000000000000000000003C
:100EB300000000000000C038E0000000203C2302D6
:100EC3000227382008F808080808F000203F21010D
:100ED3000101000008F8F800F8F80800203F013E7F
:100EE300013F200008F8888888887000203F200090
:100EF300030C302008F808000008F808203F2101FF
:100F030001213F20C03008080808380007182020B6
:100F130020100800F008F0806018000000310C0376
:100F23001E211E0000FC8484FC00445454547F544E
:100F330054544400003F10103F0000FF1515155591
:100F4300957F00000000101098A44744A4540C049B
:100F5300000000000081898944444A3121110905B8
:100F630003000000404042424242C24242424242E7
:100F730042404000002070282423202020242830D1
:100F8300E000000000FE0222DA0600FE22222222F6
:100F930022FE000000FF08108847300F02020242C1
:100FA300827F0000100C055555D5057F0555555515
:100FB30005140C001010108AA96B352525ABE90820
:100FC30010101000000000E0000000FF00000020EF
:100FD30040800000080403000040807F0000000000
:100FE30000010E0002E22222222222FE22222222DB
:100FF30022E2020000FF00000912007F00091240F4
:10100300807F000020202020202020FF202020207F
:101013002020200080804020100C0300030C1020AF
:101023004080800002E22222222222FE2222222269
:1010330022E2020000FF00000912007F00091240B3
:10104300807F000020180AAAAAAA0AFE0AAAAAAA4E
:101053000A2818000000FE92929292FE92929292B7
:10106300FE00000000FE0222DA0608C8B88FE888F6
:101073008888080000FF0810080708080808FF0808
:101083000808080002E22222222222FE2222222231
:1010930022E2020000FF00000912007F0009124053
:1010A300807F000000020CC0002020E000FF70A041
:1010B3001008000002027F0010080641807F000133
:1010C30006081000100C0555D555057F05555555D7
:1010D30005140C000004027D959595959D91A19FA3
:1010E30080C0000000020C8060088868180FE808C0
:1010F3000808080002027E010020110D41817F01D2
:101103000509300002E22222222222FE222222228A
:1011130022E2020000FF00000912007F00091240D2
:10112300807F000002E22222222222FE22222222A9
:1011330022E2020000FF00000912007F00091240B2
:10114300807F000000080828480808FF080848288E
:10115300080800008181414121110D030D11214136
:1011630041818100100C05555555057F0555555591
:1011730005140C0000004149494949494949494975
:10118300FF000000000000E0000000FF000000205E
:1011930040800000080403000040807F000000003E
:1011A30000010E00100C05555555057F0555555585
:1011B30005140C0000004149494949494949494935
:1011C300FF0000000000F010101010FF10101010AE
:1011D300F000000000000F04040404FF04040404EE
:1011E3000F000000100C05555555057F0555555545
:1011F30005140C00000041494949494949494949F5
:10120300FF00000020202020202020FF202020207D
:101213002020200080804020100C0300030C1020AD
:1012230040808000100C05555555057F05555555D3
:1012330005140C00000041494949494949494949B4
:10124300FF000000100C05555555057F05555555F4
:1012530005140C0020120A06FF0A1200FF5555550B
:1012630055FF000000020C8060088868180FE8082A
:101273000808080002027E010020110D41817F0150
:101283000509300004AE530A57485526BD0D2650B4
:101293000D954446AAB9056A4D09AD4224AEB6047C
:1012A300AE4A6A4DBE0A4D520D25465D52BA0B54E5
:1012B3004E0D6A43296D37095B4B749BC1049754E8
:1012C3000A4B485B25BC06A55006D4454ADAB8024A
:1012D300B64D0957422497B704974A664B3E0D4AC9
:1012E300510EA54656D4BA05AD4E02B64439373829
:1012F300092E4B7C96BF0C95530D4A486DA53B0BAD
:10130300554F056A454AADB9025D4D092D422C95ED
:10131300B60A954A7B4ABD06CA510B5546555ABB78
:1013230004DA4E0A5B43352BB8052B4C8A953F0EE6
:10133300955206AA487AD53C0AB54F04B6454A5792
:10134300390A574D0526423E93350D954975AABE78
:10135300056A51096D4654AEBB04AD4F0A4D434D6A
:1013630026B70D254B8D52BF0B54520B6A47696D3F
:101373003C095B50049B454A4BB90A4B4DAB25C214
:1013830006A55406D4496ADA3D0AB65109374654CC
:1013930097BB04974F064B4436A5370EA54A86B232
:1013A300BF05AC530AB6475936BC092E500C9645B7
:1013B3004D4AB80D4A4C0DA54125AAB6056A497A8E
:1013C300ADBD025D52092D475C95BA0A954E0B4A95
:1013D300434B55370AD54A955ABF04BA530A5B485B
:1013E300652BBC052B500A9345474AB906AA4C0AFC
:1013F300D54124DAB604B64A69573D0A4E510D2643
:10140300465E933A0D534D05AA4336B537096D4BE6
:10141300B4AEBF04AD530A4D486D25BC0D254F0D29
:1014230052445DAA380B5A4C056D4124ADB6049B5A
:101433004A7A4BBE0A4B510AA5465B52BA06D24EB4
:101443000ADA42355B3709374B8497C10497530651
:101453004B4866A53C0EA54F06B2444AB6380AAEC1
:101463004C092E423C97350C96497D4ABD0D4A5195
:101473000DA54555AABA056A4E0A6D43452EB70513
:101483002D4B8A95BF0A95530B4A476B553B0AD59B
:101493004F055A454A5D380A5B4C052B423A93B6D1
:1014A3000693497729BD06AA510AD54654DABA04E8
:1014B300B64E0A57434527380D264A8E933E0D52A2
:1014C300520DAA4766B53B056D4F04AE454A4EB96A
:1014D3000A4D4C0D15412D92B5001F3B5A7897B517
:1014E300D4F301110130014E000303060104060287
:1014F3000500030596B496A6979778797969787766
:1015030096A49696978779797969787896A5879638
:10151300878779696969787886A596A59697887883
:101523007869787896B496A6979778797969787771
:1015330096A49696979779797969787896A58796F8
:10154300878779696969787886A596A59697887853
:101553007869788796B496A6979778797969787732
:1015630096A49696979779797979787896A58796B8
:10157300878779696969787886A596A59697887823
:101583007869778795B496A6979778797869787705
:1015930096B496A6979779797969787896A5979668
:1015A300978779796969787896A596A596978878C3
:1015B3007879778795B496A69697787978697877C6
:1015C30096B496A6979779797969787796A5979639
:1015D300978779796969787896A596A59697887893
:1015E3007879778795B496A5969778797869788787
:1015F30096B496A5969778797869788796A49696FF
:10160300978779796969787896A596A59697887862
:101613007879778795B496A5969778797869788756
:1016230096B496A6979778797969787796A49696DB
:10163300978779796969787896A596A59697887832
:101643007878878795B496A5969788787869788708
:1016530096B496A6979778797969787796A49696AB
:10166300978779797969787896A596A596968878F3
:101673007878878795B496A59697887878697887D8
:1016830096B496A6979778797969787796A496967B
:10169300979779797979787896A596A596968878A3
:1016A3007878878795B496A59697887878697887A8
:1016B30096B496A6979778797969787796A496964B
:1016C300979779797969787896A596A59696887883
:1016D3007878878795B496A5969788787869788778
:1016E30096B496A6979778797969787796A496961B
:1016F300979779797969787896A596A5A696887843
:101703007878878795B496A5969788787879778738
:1017130095B496A6979778797869787796B496A6CC
:10172300979779797969787896A5A6A5A6968888F2
:1017330078788787A5B496A59697887878797787F8
:1017430095B496A5969778797869787796B496A69E
:10175300979779797969787896A5A6A5A6968888C2
:1017630078788787A5B496A59697887878797787C8
:1017730095B496A5969778797869788796B496A65E
:10178300979778797969787796A5A5A5A696888895
:1017930078788787A5B496A5969788787879778798
:1017A30095B496A5969788787869788796B496A61F
:1017B300979778797969787796A4A5A5A696888866
:1017C30088788787A5B496A596968878787887874A
:1017D30095B496A5969788787869788796B496A6EF
:1017E300979778797969787796B4A5A5A696888826
:1017F30088788787A5B496A596968878787887871A
:1018030095B496A5969788787869788796B496A6BE
:10181300979778797969787796B4A5A5A6A68888E5
:1018230088788787A5B496A59696887878788787E9
:1018330095B496A5969788787869788796B496A68E
:10184300979778797969787796A4A5A5A6968888D5
:1018530088788787A5B496A5A696887878788787A9
:1018630095B496A5969788787869788796B496A65E
:10187300979778797869787796A4A5B5A6A6888886
:1018830088788787A5B496A5A69688887878878769
:1018930095B496A5969788787879788795B496A61F
:1018A300969778797869787796A4A5B5A6A6888857
:1018B30088788787A5B496A5A69688887878878739
:1018C30095B496A5969788787879778795B496A5F1
:1018D300969778797869787796B4A5B5A6A6878818
:1018E30088788787A5B4A6A5A696888878788787F9
:1018F300A5B496A5969788787879778795B496A5B1
:10190300969788797869788796B4A5B5A6A68788C7
:1019130088788786A5B4A5A5A696888888788787BA
:10192300A5B496A5969688787879778795B496A581
:10193300969788787869788796B4A5B5A6A6878898
:1019430088788786A5B3A5A5A6968888887887878B
:10195300A5B496A5969688787878878795B496A542
:10196300969788787869788796B4A5B5A6A6878868
:1019730088788786A5B3A5A5A6A68888887887874B
:10198300A5B496A5969688787878878795B496A512
:10199300969788787869788796B4A5B5A6A6878838
:1019A30088788786A5B3A5A5A6A68888887887871B
:1019B300A5B496A5969688887878878795B496A5D2
:1019C300969788787869788796B4A5B5A6A6878808
:1019D30088788786A5B3A5A5A6A6888888788787EB
:1019E300A5B496A5A69688887878878795B496A592
:1019F300969788787869788796B4A5B5A6A68788D8
:101A030087788786A5B3A5B5A6A6888888788787AB
:101A1300A5B496A5A69688887878878795B496A561
:101A2300969788787879788796B4A5B5A5A6878898
:101A330087788786A5B3A5B5A6A68788887887877C
:101A4300A5B496A5A69688887878878795B496A531
:101A5300969788787879778795B4A5B4A5A687886B
:101A630087788786A5C3A5B5A6A68788887887873C
:101A7300A5B4A6A5A696888878788787A5B496A5E1
:101A8300969688787879778795B4A5B4A5A697872D
:101A930087788786A5C3A5B5A6A68788887887860D
:101AA300A5B4A5B5A696888888788787A5B496A592
:101AB300969688787879778795B4A5B4A5A69787FD
:101AC30087788796A5C3A5B5A6A6878888788786CD
:101AD300A5B3A5A5A6A6888888788787A5B496A563
:101AE300969688787878878795B4A5B4A5A69787BE
:101AF30087788796A5C3A5B5A6A68788887887869D
:101B0300A5B3A5A5A6A6888888788787A5B496A532
:101B1300969688787878878795B4A5B4A5A697878D
:101B230087788796A5C3A5B5A6A68788887887866C
:101B3300A5B3A5A5A6A6888888788787A5B496A502
:101B4300A69688887878878795B4A5B4A5A697873D
:101B530087788796A5C3A5B5A6A68788887887863C
:101B6300A5B3A5A5A6A6888888788787A5B496A5D2
:101B7300A69688887878878795B4A5B4A5A697870D
:101B830087788796A5C3A5B5A5A68788877887860E
:101B9300A5B3A5B5A6A6888888788787A5B496A592
:101BA300A69688887878878795B4A5B4A5A69787DD
:101BB30087888796A5C3A5B4A5A6878887788786CF
:101BC300A5B3A5B5A6A6878888788787A5B496A563
:101BD300A69688887878878795B4A5B4A5A59787AE
:101BE30087888696A4C3A5B4A5A697878778878692
:101BF300A5C3A5B5A6A6878888788787A5B4A5A514
:101C0300A696888888788787A5B4A5B4A5A597875D
:101C130097888696A4C3A5B4A5A697878778878651
:101C2300A5C3A5B5A6A6878888788787A5B4A5A5E3
:101C3300A6A6888888788787A5B4A5B4A5A597871D
:101C430087888696A4C3A5B4A5A697878778879621
:101C5300A5C3A5B5A6A6878888788786A5B4A5A5B4
:101C6300A6A6888888788787A5B4A5B4A5A59787ED
:101C730087879696A4C3A5B4A5A6978787788796E2
:101C8300A5C3A5B5A6A6878888788786A5B3A5A585
:101C9300A6A6888888788787A5B4A5B4A5A59787BD
:101CA30087879696A4C3A5B4A5A6978787788796B2
:101CB300A5C3A5B5A6A6878888788786A5B3A5A555
:101CC300A6A6888888788787A5B4A5B4B5A597976D
:101CD30087879696A4C3A5B4A5A697878778879682
:101CE300A5C3A5B5A5A6878887788786A5B3A5A527
:101CF300A6A6888888788787A5B4A5B4B5A597973D
:101D030087879696A4C3A5B4A5A697878788879641
:101D1300A5C3A5B5A5A6878887788786A5B3A5B5E6
:101D2300A6A6878888788787A5B4A5B4B5A597970D
:101D330087879696A4C3A5B4A5A697878788879611
:101D4300A5C3A5B4A5A6978887788786A5B3A5B5A7
:101D5300A6A6878888788787A5B4A5B4B5A59797DD
:101D630087879696A4C3A5B4A5A5978787888696E3
:101D7300A5C3A5B4A5A6978787788786A5C3A5B568
:101D8300A6A6878888788787A5B4B4B4B5A597979E
:101D930097879696B4C3A5B4A5A597878788869693
:101DA300A4C3A5B4A5A6978787788786A5C3A5B539
:101DB300A6A6878888788787A5B4B4B4B5B597975E
:101DC30097879696B4C3A5B4A5A597878788869663
:101DD300A4C3A5B4A5A6978787788796A5C3A5B5F9
:101DE300A6A6878888788786A5B4B4B4B5B597972F
:101DF30097879696B4C3A5B4A5A597878787969624
:101E0300A4C3A5B4A5A6978787788796A5C3A5B5C8
:101E1300A6A6878888788786A5B3B4B4B5B59797FF
:101E230097879696B4C3A5B4A5A5979787879696E3
:101E3300A4C3A5B4A5A6978787788796A5C3A5B598
:101E4300A6A6878888788786001F1C1F1E1F1E1F53
:051E53001F1E1F1E1FF1
:063397000150000152008C
:043211007F147E00A8
:10321500D3EF9400EE940040147D6E7C00ED1D709C
:0D322500011CED4C70F7EF1F70E61E80E3FA
:013232002279
:1032B000C2B5D2B4E4F580D2B300AF80C2B3530735
:0A32C00080EF7003D38001C350EAD1
:0132CA0022E1
:10332400AE071232B0C2B5C2B48E80D2B30000C2AE
:02333400B322C2
:06339E004307B8023324CE
:0633A4004307C0023324C0
:0F32CB00AC031231CB53043FAF0512339EAF0457
:0932DA0053073F4307400233246F
:0633AA0043073E0233243C
:0532E300F583E493FFF8
:1032E800AE071232B0D2B5C2B48E80D2B30000C2DB
:0232F800B322FF
:1031CB00EF14600B14601124027017C2B6800BC28F
:1031DB00B6000000D2B78007D2B6000000C2B7001D
:0331EB00000022BF
:103274001231CBE4FDAF0512339EE4FF1232DAE4DF
:0E328400FCE4FF1232E80CBC40F70DBD08E779
:013292002219
:103233001232B0E4FF1231CB1233AAE4FF1231CBC6
:103243000F1233AAE4FF1231CB123274E4FF0233BC
:01325300A4D6
:0630A1007B607D047F024C
:1030A7001232CBE4FBFA75F020E573A42BF582E529
:1030B700F03AF583E5822447F582E583340012323E
:1030C700E30BBB00010AEB64104A70DAED04FF1250
:1030D70032D5E4FAFB75F020E573A42BF582E5F011
:1030E7003AF583E5822457F582E58334001232E30B
:0B30F7000BBB00010AEB64104A70DA0A
:0131020022AA
:08303D00F573E4FB7D067F0141
:103045001232CBE4FBFA75F020E573A42BF582E58B
:10305500F03AF583E58224E7F582E58334071232F9
:10306500E30BBB00010AEB64104A70DAED04FF12B2
:1030750032D5E4FAFB75F020E573A42BF582E5F073
:103085003AF583E58224F7F582E58334071232E3C6
:0B3095000BBB00010AEB64104A70DA6C
:0130A000220D
:0B2F700075F00A8485F0737B487F0237
:102F7B001232CBE4FBFA75F010E573A42BF582E566
:102F8B00F03AF583E58224E7F582E583340D1232BE
:102F9B00E30BBB00010AEB64084A70DAED04FF1285
:102FAB0032D5E4FAFB75F010E573A42BF582E5F04E
:102FBB003AF583E58224EFF582E583340D1232E393
:0B2FCB000BBB00010AEB64084A70DA3F
:012FD60022D8
:0F335900EF7F08A2E09292D291C291C313DFF4EA
:013368002242
:0F3369007F08C313A29292E7D291C291DFF4FFC3
:013378002232
:1032FA00AE05C290C291D290123359AF0612335919
:05330A00D291C29022E7
:10330F00C290C291D290EF4401FF12335912336928
:04331F00D291C290F5
:013323002287
:0F3379003000047D808002E4FD7F8E1232FA2244
:10325400AC05AB07C200123379AF03EC75F00A84F6
:10326400C454F0FEEC75F00A84E5F04EFD0232FA27
:062B35007B007A00793AF2
:062B3B008B578A588959EE
:102B41007F8012330FAD07ED5470C4540F75F00A36
:102B5100A4FFED540F7C002FFFEC35F0AB57AA58C2
:102B6100A9598FF01227DE7F8212330FAD07ED5482
:102B710070C4540F75F00AA4FFED540F2FAB57AA80
:102B810058A95990000212272A7F8412330FAD07EA
:102B9100ED5470C4540F75F00AA4FFED540F2FAB20
:102BA10057AA58A95990000312272A7F8612330F7A
:102BB100AD07ED5470C4540F75F00AA4FFED540F26
:102BC1002FAB57AA58A95990000512272A7F8A12BC
:102BD100330FAD07ED5470C4540F75F00AA4FFED27
:102BE100540F2FAB57AA58A95990000412272A7FD6
:102BF1008812330FAD07ED5470C4540F75F00AA459
:102C0100FFED540F2FAB57AA58A959900006122770
:102C11002A7F8C12330FAD07ED5470C4540F75F039
:102C21000AA4FFED540F2FAB57AA58A959900007DA
:032C310002272A4D
:102FD7009000071226FD75F00A8490000812272A30
:102FE7009000071226FD75F00A84900009E5F0129B
:102FF700272A9000061226FD75F00A8490000A120F
:10300700272A9000061226FD75F00A8490000BE52A
:10301700F012272A9000051226FD75F00A84900009
:103027000C12272A9000051226FD75F00A849000DD
:063037000DE5F002272A5E
:092E74007B007A00793A122FD795
:102E7D008B578A5889599000031226FD75F00A84E4
:102E8D0090000E12272A9000031226FD75F00A8479
:102E9D0090000FE5F012272A9000021226FD75F022
:102EAD000A8490001012272A9000021226FD75F058
:102EBD000A84900011E5F012272A1227B3FFAEF015
:102ECD007C007D0A12275EAB57AA58A959900012B3
:102EDD00EF12272A1227B3FFAEF07C007D0A1227CE
:0E2EED005EAB57AA58A959900013ED02272A90
:103348007F8012330FEF30E707E4FD7F801232549D
:013358002252
:042C34008D70AC07EC
:102C3800E4F571F572F573F574E54F75F064A4AEBB
:102C4800F0AD047C002DF576EC3EF575AF03757399
:102C5800008F74E4FBFAC3EB9570EA94005015EB0F
:102C6800901E4B932574F574E43573F5730BBB0014
:102C7800010A80E2E5765403700EAE75AF76FC7DEE
:102C88006412275EED4C700FAE75AF767C017D90B7
:102C980012275EED4C700FE570D39402400805745E
:102CA800E574700205737A077B6DC3EB9576EA9538
:102CB80075502BEB5403700EFC7D64AF03AE02120B
:102CC800275EED4C700F7C017D90AF03AE0212279A
:102CD8005EED4C700205710BBB00010A80CCD3E598
:102CE80076946CE57594074038E5769434E57594E8
:102CF80008502EAE75AF767C017D6D12274CE574B9
:102D08002FFFE5733EFE1CEF2571FFEC3ECF2498A4
:102D1800F574EF3469F573FEAF747D0712275E8D85
:0A2D280072E5727003757207AF7256
:012D3200227E
:0929D900E4F578AD7CAC7BAF7431
:1029E200EF14B40D004003022B329029FA75F00364
:1029F200A4C58325F0C58373022A21022A36022A3E
:102A02004B022A60022A75022A8A022A9F022AB4EB
:102A1200022AC9022ADE022AF3022B08022B1D74A3
:102A2200872DF58274123CF583E49320E3037F0043
:102A3200227F012274872DF58274123CF583E49380
:102A420020E2037F00227F012274872DF582741217
:102A52003CF583E49320E1037F00227F0122748707
:102A62002DF58274123CF583E49320E0037F00226B
:102A72007F012274882DF58274123CF583E4932041
:102A8200E7037F00227F012274882DF58274123CB5
:102A9200F583E49320E6037F00227F012274882DD0
:102AA200F58274123CF583E49320E5037F00227FD4
:102AB200012274882DF58274123CF583E49320E49C
:102AC200037F00227F012274882DF58274123CF567
:102AD20083E49320E3037F00227F012274882DF593
:102AE2008274123CF583E49320E2037F00227F018B
:102AF2002274882DF58274123CF583E49320E1035D
:102B02007F00227F012274882DF58274123CF583A6
:102B1200E49320E0037F00227F012274892DF58255
:102B220074123CF583E49320E7037F00227F0122A5
:032B32007F0022FF
:08280E008E708F718B72AA0518
:102816007C007D6412275E8F75AE70AF717C007D83
:102826006412275E8D76E57564136009E575641498
:1028360060037F0022E575B41409E5762463FFE49E
:10284600338008E57624FFFFE434FFFE7C007D0339
:1028560012274C8E7B8F7C7489257CF58274123509
:102866007BF583E493FF5460C4135407FEEF541FB3
:10287600F9BE010514F5738005E9241EF573EAC354
:10288600940AEA50119014DB93FDE572F582ED256A
:1028960082FDE433801725E024D1F582E43414F573
:1028A60083E572FD7401932DFDE4933400CD24FF7E
:1028B600F57AED34FFF579EAD39402400EE57654C5
:1028C600037008057AE57A70020579E573FD7C00E8
:1028D600C3E57A9DE5799C406CE57A9DF57AE579C4
:1028E6009CF5797A017574011229D9EF70047E1D61
:1028F60080027E1E7487257CF5827412357BF583F3
:10290600E493C4540FF96002F577EEFD7C00C3E54D
:102916007A9DE5799C4029E57A9DF57AE5799CF5DD
:10292600790574EAB5010A6378FFE57870040A80D0
:10293600010A1229DCEF70047E1D80CE7E1E80CA3D
:10294600E57A0229C1C3E573957AF573E5767008D1
:102956007576637575138002157674FD257CF57C96
:1029660074FF357BF57B7A0CFC7487257CF58274C5
:10297600123CF583E493C4540FF9700575740C800A
:102986000375740D1229D9EF70047E1D80027E1E18
:10299600E573D39E4021E5739EF5731574E5787053
:1029A600011AEAB501036378FF1229DCEF70047E91
:1029B6001D80DD7E1E80D9C3EE957304F5728A39BB
:1029C60085724EE577B539057535018003E4F53531
:0229D6007F017F
:0129D80022DC
:042EFB008E708F71D5
:102EFF00EBD3940F403274F12BFB8F828E83740CC3
:102F0F001227FDE5822DF582E43583F583E58224D2
:102F1F00DAF582E58334BBF583E493540FB50304EC
:102F2F007901803AE4F98036C3740F9BFB85718277
:102F3F00857083740C1227FDE5822DF582E43583AD
:102F4F00F583E58224DAF582E58334BBF583E493D8
:102F5F0054F0C4540FB5030479018002E4F9AF01B2
:012F6F00223F
:10214C0078577C007D007B007A00793A7E007F1402
:03215C001226D771
:10215F00E4FF1233A4E4F573FBFD7F011230A77582
:10216F0073017B107F011230A775730A7B207F01EB
:10217F00122F7BE54F75F00A84F5737B287F0112D0
:10218F002F7BE54F75F00A8485F0737B307F01124A
:10219F002F7B855F737B387F01122F7B8560737B6D
:1021AF00407F02122F7B75730B122F778561737B24
:1021BF00507F02122F7B8562737B587F02122F7B19
:1021CF0075730B7B607F02122F7B8563737B687F38
:1021DF0002122F7B8564737B707F02122F7BE55F6A
:1021EF0075F00AA42560F9E56175F00AA42562F57A
:1021FF006CE56375F00AA42564F56DAF01FBAD6C5A
:10220F00122C348F6B757302E4FB7D027F01123049
:10221F00A77573037B107F011230A7E56B2403F5BD
:10222F00737B207F011230A78565737B407F02127D
:10223F002F7B856673122F7775730A7B507F02127F
:10224F002F7B8567737B587F02122F7B8568737B8B
:10225F00607F02122F7B75730A7B687F02122F7BC0
:10226F00854C737B707F02122F7B854D737B787F3C
:10227F0002122F7BE54F75F064A4AEF0AD017C0028
:10228F002DF56FEC3EF56EE56F24FDFFE56E34FF27
:10229F00FE7D0A12275EAB05E56F24FDFFE56E3468
:1022AF00FFFE7C007D0C12275EA905EB70027B0AF6
:1022BF00E97002790CEB240AF573E4FB7D047F01CE
:1022CF001230A7E92414F5737B107F011230A77524
:1022DF0073217B207F011230A7AB6DAD6CAF6FAE5A
:1022EF006E12280EEF640160030223B7E535B401C7
:1022FF000C7573237B307D047F011230A7E539B451
:10230F0001057573248006E5392426F5737B401289
:10231F0030A37573227B501230A3E54E75F00A84FB
:10232F00F970137573257B607F021230A7E54E2479
:10233F0026F5730223B0E964017029E54E75F00AA2
:10234F0084E5F0700B7573251230A1757330801210
:10235F007573301230A1E54E75F00A84E5F024262E
:10236F00F573803DE96402702DE54E75F00A84E542
:10237F00F0700D7573281230A17573307B60802358
:10238F007573261230A1E54E75F00A84E5F0242608
:10239F00F5737B70800DE92426F5731230A17573E8
:1023AF00307B707F021230A7AB6DAD6CAF6FAE6E2E
:1023BF00122EFBEF64017034E56DD3940FE56C4082
:1023CF001225E025E024FE12303DE56C25E025E0E6
:1023DF001480101425E025E012303DE56C25E02532
:0C23EF00E024FDF5737B107F01123045E7
:0123FB0022BF
:101E580075A0FEE5A064FE6054123211E5A064FE90
:101E6800602AE5A054F0F53705522490601B24C081
:101E7800601224E0600924F07012E4F533800D75D7
:101E8800330180087533028003753303E5A0B4FE7F
:101E9800FBE533600F6401600BE53364026005E520
:101EA80033B4030974222550F8A633055075A0FDF4
:101EB800E5A064FD6058123211E5A064FD602AE5D2
:101EC800A054F0F53705522490601B24C0601224FA
:101ED800E0600924F07012753304800D75330580B5
:101EE800087533068003753307E5A0B4FDFBE533B9
:101EF80064046011E5336405600BE533640660052E
:101F0800E533B4070974222550F8A633055075A0A7
:101F1800FBE5A064FB607B123211E5A064FB60283E
:101F2800E5A054F0F5372490601B24C0601224E02B
:101F3800600924F07012753308800D753309800824
:101F480075330A800375330BE5A0B4FBFBE53364F6
:101F5800086005E533B4090B055274222550F8A62C
:101F6800330550E533640B7029E552D39408E552E4
:101F780075F008500BA42438FB75730C7D0280099A
:101F8800A424F8FB75730C7D047F02122F7B155275
:101F9800155075A0F7E5A064F770030220F412321B
:101FA80011E5A064F76028E5A054F0F537249060A7
:101FB8001B24C0601224E0600924F0701275330CF1
:101FC800800D75330D800875330E800375330FE56A
:101FD800A0B4F7FBE53324F3602424FE7003022049
:101FE8008B240360030220F4E4FF12327475733704
:101FF8007B20E4FD7F011230A77573388014E4FF5D
:1020080012327475733B7B20E4FD7F011230A77593
:10201800733C7B307F011230A77573397B407F0298
:102028001230A775733A7B507F021230A77573334D
:10203800E4FB7D027F011230A77573347B107F01AA
:102048001230A77573357B207F011230A775733660
:102058007B307F011230A7757333E4FB7D047F0169
:102068001230A77573347B107F011230A775733750
:102078007B207F011230A77573387B307F011230C7
:10208800A78069E552640E7063FF123274E5227509
:10209800F00AA42523F54FE52475F00AA42525F5B3
:1020A80034E52675F00AA42527F531E52875F00AE8
:1020B800A42529F536E52A75F00AA4252BF538E577
:1020C8002C75F00AA4252DF530E52E75F00AA42507
:1020D8002FF521753201E4F55074222550F8E4F605
:1020E8000550E550B40EF2E4F550F552E552D3949C
:1020F800085026E4F551E551C395525046E551750F
:10210800F008A42440FB74222551F8E6F5737D02FB
:102118007F02122F7B055180DDE4F551E55224F84A
:10212800FFE551C39F501CE55175F008A42440FBFE
:10213800742A2551F8E6F5737D047F02122F7B057A
:042148005180D922C7
:1031640075A0F0E5A064F060337F0A7E001232158A
:1031740075A0F0E5A064F06023AFA075A00FE5A0F2
:103184004FFFC374FF9FFFE4FEEE90003793B50733
:0E31940004AB0680040EBE10F0AF03227FFFD6
:0131A200220A
:10310300E4FBFAEB90001D937007EB9000039360D0
:103113004FE4F557F558EB90001D9375F014A4FF99
:10312300C3E5589FE55795F05028B295E4FFFEEBB1
:103133009000039375F00384FDC3EF9DEE9400505C
:10314300070FBF00010E80E70558E55870C8055703
:1031530080C47F0A7E001232150BBB00010A80A3D4
:013163002249
:1031EE008F50E550D394004019755164122B35124F
:1031FE002E7412214C1551E551D3940050EE1550FA
:03320E0080E0223B
:0E3388007F06E55DD394004005155D1F80F4BF
:013396002214
:10333600AD071FED600BE4FEEEC394FA50F20E806B
:01334600F78F
:013347002263
:10329300D294123388C2947F14123336D2941233E9
:0D32A3008812338812338812338802338872
:1031A300E4FC3094FDE4FD12338812338812338833
:1031B3001233883094010D2094FDEE25E0FEED429C
:0731C300060CBC08DDAF069D
:0131CA0022E2
:102D33001232932094543094FDE4FE1233880EBE75
:102D430008F91231A38F571231A38F581231A3AB55
:102D5300071231A3AA071231A38F5CC294123388DE
:102D6300D294E5572558FFE433FEEB7C002FFFECAC
:102D73003EFEEA2FFFEC3EFEEFB55C0EECB5060A15
:102D830085575985585AA9038A5BE55975F00A8412
:102D9300F5737B407D067F02122F7BE559122F705E
:102DA3007573137B507F02122F7B7573107B587FD3
:102DB30002122F7B7573117B607F02122F7BE975E3
:102DC300F00A84F5737B687F02122F7BE975F00AA2
:102DD3008485F0737B707F02122F7B7573127B786F
:052DE3007F02022F7BBE
:1023FC00123348123233C293C295E4FF1232747511
:10240C004F14122B35122E7412214C122D33123103
:10241C00648F54E554F460EAE554640C7053121E56
:10242C0058E5326401703FAD217F80123254AD30DB
:10243C007F82123254AD387F84123254AD367F868F
:10244C00123254AD317F88123254AD347F8C12323B
:10245C0054122B35122E7412214C123164BF0AF116
:10246C00755301E4F532E553B401B3E4F55302249A
:10247C000EE554640E600302250DE54875F00AA4C0
:10248C007C002549FFEC35F0FEC3EF940DEE648023
:10249C00948040118548558549561548154915496C
:1024AC0075730E800985485585495675730D7B30BB
:1024BC007D027F01122F7B75730F7B387F01122FEA
:1024CC007BE54875F00AA42549F538FD7F84123266
:1024DC005412214C123164BF0AF7E55575F00AA469
:1024EC002556FD7F8412325475730C7B307D027F30
:1024FC0001122F7B75730C7B387F01122F7B02240A
:10250C000EE554640D600302240E121E58E532646D
:10251C000160030225C4122B35122E7412214CE5D6
:10252C003875F00A84F5737B407D067F02122F7B91
:10253C00E538122F7075730A7B507F02122F7BE5E2
:10254C003075F00A84F5737B587F02122F7BE530CF
:10255C0075F00A8485F0737B607F02122F7B757394
:10256C000A7B687F02122F7BE52175F00A84F573D4
:10257C007B707F02122F7BE52175F00A8485F07346
:10258C007B787F02122F7BE53465417022E531B5F3
:10259C00401DE536B53F18E538B53D13E530B53C83
:1025AC000EE521B53B09E4B53A057553018006E407
:1025BC00F553022522E4F532E5536401600302254C
:1025CC0016D2931231037FF47E01123215C2937F1F
:1025DC00017E001231EEE4F553E55375F008A424A6
:1025EC0040FB75730C7D067F02122F7B0553E55360
:0B25FC00C3940840E4E4F55302240EF1
:102DF4000223FCE493A3F8E493A34003F68001F2D6
:102E040008DFF48029E493A3F85407240CC8C333DF
:102E1400C4540F4420C8834004F456800146F6DFAE
:102E2400E4800B0102040810204080903397E47E74
:102E3400019360BCA3FF543F30E509541FFEE493A3
:102E4400A360010ECF54C025E060A840B8E493A36A
:102E5400FAE493A3F8E493A3C8C582C8CAC583CA95
:102E6400F0A3C8C582C8CAC583CADFE9DEE780BE4D
:01339D00002F
:10260700E709F608DFFA8046E709F208DFFA803EB5
:1026170088828C83E709F0A3DFFA8032E309F608A2
:10262700DFFA8078E309F208DFFA807088828C830A
:10263700E309F0A3DFFA806489828A83E0A3F608BE
:10264700DFFA805889828A83E0A3F208DFFA804C98
:1026570080D280FA80C680D4806980F2803380106F
:1026670080A680EA809A80A880DA80E280CA8033D8
:1026770089828A83ECFAE493A3C8C582C8CCC58350
:10268700CCF0A3C8C582C8CCC583CCDFE9DEE78020
:102697000D89828A83E493A3F608DFF9ECFAA9F09F
:1026A700EDFB2289828A83ECFAE0A3C8C582C8CCF5
:1026B700C583CCF0A3C8C582C8CCC583CCDFEADE0E
:1026C700E880DB89828A83E493A3F208DFF980CC70
:1026D70088F0EF60010E4E60C388F0ED2402B40469
:1026E7000050B9F582EB2402B4040050AF23234510
:0626F700822390265773B8
:1026FD00BB010CE58229F582E5833AF583E0225092
:10270D0006E92582F8E622BBFE06E92582F8E222DB
:0D271D00E58229F582E5833AF583E49322F5
:10272A00F8BB010DE58229F582E5833AF583E8F0E5
:10273A00225006E92582C8F622BBFE05E92582C891
:02274A00F22279
:10274C00EF8DF0A4A8F0CF8CF0A428CE8DF0A42EA1
:02275C00FE225B
:10275E00BC000BBE0029EF8DF084FFADF022E4CC5F
:10276E00F875F008EF2FFFEE33FEEC33FCEE9DEC28
:10277E00984005FCEE9DFE0FD5F0E9E4CEFD22ED6E
:10278E00F8F5F0EE8420D21CFEADF075F008EF2FB8
:10279E00FFED33FD4007985006D5F0F222C398FDA9
:0527AE000FD5F0EA2246
:1027B300BB010A89828A83E0F5F0A3E022500687F1
:1027C300F009E71922BBFE07E3F5F009E3192289B3
:0B27D300828A83E493F5F074019322E6
:1027DE00BB010A89828A83F0E5F0A3F0225006F746
:0F27EE0009A7F01922BBFE06F3E5F009F3192243
:1027FD00F5F0C582A4C582C5F0C583A42583F583F4
:01280D0022A8
:00000001FF
