:10000300D4D4BED49FA9D4D4BED48E9FD4D46A7E74
:100013009FA9BE77777E9F8E9F0009030C0C0C1857
:1000230009030C0C0C1809030C0C0C0C0C09030C25
:100033000C0C1800112141811222428214244484A1
:1000430018284888008040201806800007182040A0
:100053008000000001002070282621202024386021
:10006300000101000000FE0242424242FA424242C3
:1000730042C2020080601F804020180601004080B9
:10008300403F0000000000BE2A2A2AEA2A2A2A3E0C
:1000930000000000004442494949497F4949494910
:1000A300414000000004FF242424FF0400FE222218
:1000B30022FE000088482F090919AF48300F024279
:1000C300827F00008080808080808080808080802C
:1000D300808080000000000000000000000000009D
:1000E30000000000000008080808080808080808BD
:1000F3000800000010101010101010101010101035
:100103001010100000048484848484848484848490
:1001130084040000202020202020202020202020D4
:100123002020200000FC040404FC040404FC040458
:1001330004FC0000007F28242320202020212222E9
:10014300227F00000002424242C27E42424242C239
:100153000202000040404040784740404040407F1A
:100163004040400020202020202021222C2020203D
:1001730020202000004020100C0300000001020496
:1001830018600000000000FE82828282828282FE6A
:1001930000000000000000FF40404040404040FF9E
:1001A300000000000000FE22222222FE2222222240
:1001B300FE00000000000702020202FF0202020228
:1001C300070000000002020202824222120A060213
:1001D300000000000000384641404040404040409D
:1001E3004078000002E22222222222FE2222222240
:1001F30022E2020000FF00000804030001020C4099
:10020300807F000000020202020202FE02020202DA
:1002130002020000000000000040807F0000000098
:10022300000000000000F808080808087F88080993
:100233000AC8080080601F008080404020130C140F
:100243002340F8000000828282828282828282FEC0
:100253000000000000003F4040404040404040401C
:10026300407800000000FC0424242425F6242424E0
:10027300E404040040308F81494929190F192949A1
:100283004F81810040404444546445C6446454440F
:100293004440400000040404040404FF0404040470
:1002A3000404000080808484848484FC82828283AA
:1002B30082808000000040404040407F40404040FA
:1002C30040000000808A5222928A8680838C923179
:1002D30048848000008484444424140F1414244468
:1002E3008404000080828282828282E2A2928A86D1
:1002F30082808000000000000040807F000000003A
:1003030000000000000082828282FE82828282FEDE
:100313000000000040404040407F40404040407F5C
:1003230040404000100C04D4545455F6545454D453
:1003330004140C000000009F5232121F1232529F0D
:100343000000000000FE020201FD0000FE020202A6
:1003530002FE000000078444320F0000FF0004087F
:10036300040300000000FE82929292929292929273
:100373009282000040300F0000FF40200304081465
:10038300224040000000FE8282828282828282FEBC
:100393000000000000003F404040404040404040DB
:1003A30040780000004020180F0808F808080808E3
:1003B3000800000002020202020202FF020202021D
:1003C3000202020080808888888888FF888888885D
:1003D3008880800020201008040201FF0102040825
:1003E300102020000000F888888888FF8888888883
:1003F300F800000000001F08080808FF08080808A4
:100403001F00000002F21212927E121212FE12124A
:1004130012F2020000FF4A494848484848484949FF
:1004230049FF00000000F8080808080808FF080949
:100433000AC8080080601F010101018040211618CD
:100443002641F800000808884828190A088848083F
:1004530008080000009091894945252311081422BA
:1004630041800000002018C744444444FC444444F1
:10047300440400000404040704040404FF04040403
:1004830004040400000000FE22222222222222224F
:10049300FE0000008040300F02020202020242828C
:1004A3007F00000000F80126202022E222222222DF
:1004B30002FE000000FF00101111111F1111115055
:1004C300807F0000000202C2020202FE8282828258
:1004D300820200004040407F4040407F4040404017
:1004E30040404000080889EA1888000404FC04041A
:1004F30004FC0000020100FF018640201807408031
:10050300403F000020202020FF202020202020FF2B
:100513002020200000000000FF404040404040FFFA
:1005230000000000808080808080808080808080C8
:100533008080800000000000000000000000000038
:100543000000000000000808080808080808080858
:1005530008000000101010101010101010101010D0
:10056300101010000004848484848484848484842C
:100573008404000020202020202020202020202070
:100583002020200000FC040404FC040404FC0404F4
:1005930004FC0000007F2824232020202021222285
:1005A300227F00000002424242C27E42424242C2D5
:1005B3000202000040404040784740404040407FB6
:1005C3004040400020202020202021222C202020D9
:1005D30020202000004020100C0300000001020432
:1005E30018600000808080808040FF4040402020D1
:1005F300202000000000000000003F404040404039
:10060300407800000000000000FC0000007E800035
:100613000000000000806018070000000000030CC9
:10062300304080000010101010FF10101010F00068
:1006330000000000804020180700000000003F4039
:100643004040780040404040404040FF40404040F0
:100653004040400000000000000000FF00000000D8
:10066300000000000020100894A7444444A4940C04
:1006730000000000020201012024244448881001E4
:100683000102020000FE2222FE4048487F484848FB
:100693007F484800807F0282FF0000FF49494949A3
:1006A30049FF000088681FC80810C85452D112942B
:1006B30008D01000091909FF0500FF1292FF005F1F
:1006C300807F0000000000000001E21CE000000049
:1006D30000000000804020100C03000000030C30D9
:1006E30040808000000000FE82828282828282FE3D
:1006F30000000000000000FF40404040404040FF39
:10070300000000000004FF242424FF0400FE222232
:1007130022FE000088482F090919AF48300F024212
:10072300827F000000FC848484FC001010101010F1
:10073300FF101000003F1010103F00000106408022
:100743007F00000000F8010600F0121212F202020C
:1007530002FE000000FF0000001F1111111F0040E6
:10076300807F0000404042CC0040A09E8282829E57
:10077300A02020000000003F908840432C10284612
:1007830041808000001715D55557557D555755D5D0
:10079300151700004040407F555555555555557F19
:1007A3004040400000F8012220222AF22222222285
:1007B30002FE000000FF00001F01017F09110F402E
:1007C300807F000020102CE7242400F01010FF107D
:1007D30010F000000101017F211100070202FF0256
:1007E30002070000000000E0000000FF00000020FE
:1007F30040800000080403000040807F00000000E8
:1008030000010E00100C445454FC555654FC54542F
:1008130044140C00111109050321254549910305D1
:100823000911110020202020202020FF202020203B
:100833002020200080804020100C0300030C102097
:1008430040808000100C445454FC555654FC5454BE
:1008530044140C0011110905032125454991030591
:10086300091111000010109010101116101010D063
:100873001010000040404040435C4040504C434017
:100883004040400040445454D454745F5454D454AE
:100893005444400004040201FE9292929292FE019B
:1008A3000204040002E22222222222FE2222222227
:1008B30022E2020000FF00000912007F000912403B
:1008C300807F000000202020A06000FF6080402087
:1008D30018000000201008060140807F0001020478
:1008E3000810100000E000FF102004E42425262453
:1008F30024E40400010000FF0020100D41817F016A
:100903000509300024A424FF140084543F44047CCC
:1009130080E000000040C15E5253527F5252525E4B
:1009230060C1000040445454D454745F5454D454AC
:100933005444400004040201FE9292929292FE01FA
:1009430002040400804020908886808080838C107D
:1009530020408000008040201807004080403F0076
:10096300000000001060028C00445454547F54541F
:100973005444400004047E010000FF1515155595ED
:100983007F00000000FC444444FC0000FE222222BD
:1009930022FE0000000F0404048F40300F020242C5
:1009A300827F0000001088844320100C10204182B5
:1009B30084080000010100FE42424242424242FEDC
:1009C3000001010002E22222222222FE222222220E
:1009D30022E2020000FF00000912007F000912401A
:1009E300807F00000010109010101116101010D00E
:1009F3001010000040404040435C4040504C434096
:100A030040404000000101FD55555755555555FDD2
:100A130001010000809088454F55252525554D45FA
:100A230080808000000000E0000000FF0000002044
:100A330040800000080403000040807F00000000A5
:100A430000010E001060028C0024242FE42424E40F
:100A53002F24240004047E0100FF1109071909074C
:100A630049917F00848484849F84A4C484849F8464
:100A730084848400000000007F40404040404040A8
:100A8300404000002424A4FE232200F01010FF1095
:100A930010F00000080601FF010600070202FF0232
:100AA30002070000000101FD55555755555555FDE9
:100AB30001010000809088454F55252525554D455A
:100AC3008080800000024262524A464242425262A1
:100AD300C2020000404044444444447F44444444EC
:100AE30044404000000000E0000000FF0000002040
:100AF30040800000080403000040807F00000000E5
:100B030000010E000000005F5555F5555555955FE2
:100B13000000000011110909FD555757555555FDA2
:100B23000101010020202020202020FF2020202060
:100B33002020200080804020100C0300030C102094
:100B4300408080000000005F5555F5555555955F71
:100B53000000000011110909FD555757555555FD62
:100B6300010101000010109010101116101010D088
:100B73001010000040404040435C4040504C434014
:100B8300404040002424A4FE2322807000FF008004
:100B930040300000080601FF018640300E010618B0
:100BA300204080000080609F0808F80000FF1020AC
:100BB30040800000814020130C132020405F404000
:100BC300404140000000005F5555F5555555955F70
:100BD3000000000011110909FD555757555555FDE2
:100BE300010101000000F808080C0A0908080808B8
:100BF300F80000000000FF414141414141414141B2
:100C0300FF000000100C05555555057F05D55555BA
:100C130005140C0080F7857D5557000AE9ABA5A59F
:100C2300EB0808002424A4FE2322807000FF008028
:100C330040300000080601FF018640300E0106180F
:100C430020408000804020908886808080838C10A4
:100C530020408000008040201807004080403F0073
:100C630000000000100C445454FC555654FC5454DA
:100C730044140C001111090503212545499103056D
:100C830009111100100C05555555057F05D555550E
:100C930005140C0080F7857D5557000AE9ABA5A51F
:100CA300EB080800100C05555555057F055555559E
:100CB30005140C0020120A06FF0A1200FF555555B1
:100CC30055FF000000FE0222DA8690485724A45400
:100CD3004C84800000FF0810080718121212FF123C
:100CE300121210000010109010101116101010D0D6
:100CF3001010000040404040435C4040504C434093
:100D0300404040000020100894A7444444A4940C9D
:100D1300000000000202010120242444488810013D
:100D230001020200000000E0000000FF00000020BC
:100D330040800000080403000040807F00000000A2
:100D430000010E00100C05555555057F05555555E9
:100D530005140C0000004149494949494949494999
:100D6300FF00000020202020202020FF2020202022
:100D73002020200080804020100C0300030C102052
:100D830040808000100C05555555057F0555555578
:100D930005140C0000004149494949494949494959
:100DA300FF0000000020100894A7444444A4940CBE
:100DB300000000000202010120242444488810019D
:100DC3000102020000024262524A46424242526219
:100DD300C2020000404044444444447F44444444E9
:100DE3004440400000E010080810E000000F10200D
:100DF30020100F0000001010F80000000000202059
:100E03003F202000007008080808F0000030282464
:100E130022213000003008080888700000182021C3
:100E230021221C000000804030F800000006052449
:100E3300243F242400F8888888080800001920200B
:100E430020110E0000E0108888900000000F112090
:100E530020201F0000180808886818000000003EC2
:100E6300010000000070880808887000001C22211F
:100E730021221C0000F008080810E00000011222E3
:100E830022110F00000000C0C0000000000000306D
:100E9300300000000000000000000000000101011C
:100EA300010101000000000000000000000000003C
:100EB300000000000000C038E0000000203C2302D6
:100EC3000227382008F808080808F000203F21010D
:100ED3000101000008F8F800F8F80800203F013E7F
:100EE300013F200008F8888888887000203F200090
:100EF300030C302008F808000008F808203F2101FF
:100F030001213F20C03008080808380007182020B6
:100F130020100800F008F0806018000000310C0376
:100F23001E211E0000FC8484FC00445454547F544E
:100F330054544400003F10103F0000FF1515155591
:100F4300957F00000000101098A44744A4540C049B
:100F5300000000000081898944444A3121110905B8
:100F630003000000404042424242C24242424242E7
:100F730042404000002070282423202020242830D1
:100F8300E000000000FE0222DA0600FE22222222F6
:100F930022FE000000FF08108847300F02020242C1
:100FA300827F0000100C055555D5057F0555555515
:100FB30005140C001010108AA96B352525ABE90820
:100FC30010101000000000E0000000FF00000020EF
:100FD30040800000080403000040807F0000000000
:100FE30000010E0002E22222222222FE22222222DB
:100FF30022E2020000FF00000912007F00091240F4
:10100300807F000020202020202020FF202020207F
:101013002020200080804020100C0300030C1020AF
:101023004080800002E22222222222FE2222222269
:1010330022E2020000FF00000912007F00091240B3
:10104300807F000020180AAAAAAA0AFE0AAAAAAA4E
:101053000A2818000000FE92929292FE92929292B7
:10106300FE00000000FE0222DA0608C8B88FE888F6
:101073008888080000FF0810080708080808FF0808
:101083000808080002E22222222222FE2222222231
:1010930022E2020000FF00000912007F0009124053
:1010A300807F000000020CC0002020E000FF70A041
:1010B3001008000002027F0010080641807F000133
:1010C30006081000100C0555D555057F05555555D7
:1010D30005140C000004027D959595959D91A19FA3
:1010E30080C0000000020C8060088868180FE808C0
:1010F3000808080002027E010020110D41817F01D2
:101103000509300002E22222222222FE222222228A
:1011130022E2020000FF00000912007F00091240D2
:10112300807F000002E22222222222FE22222222A9
:1011330022E2020000FF00000912007F00091240B2
:10114300807F000000080828480808FF080848288E
:10115300080800008181414121110D030D11214136
:1011630041818100100C05555555057F0555555591
:1011730005140C0000004149494949494949494975
:10118300FF000000000000E0000000FF000000205E
:1011930040800000080403000040807F000000003E
:1011A30000010E00100C05555555057F0555555585
:1011B30005140C0000004149494949494949494935
:1011C300FF0000000000F010101010FF10101010AE
:1011D300F000000000000F04040404FF04040404EE
:1011E3000F000000100C05555555057F0555555545
:1011F30005140C00000041494949494949494949F5
:10120300FF00000020202020202020FF202020207D
:101213002020200080804020100C0300030C1020AD
:1012230040808000100C05555555057F05555555D3
:1012330005140C00000041494949494949494949B4
:10124300FF000000100C05555555057F05555555F4
:1012530005140C0020120A06FF0A1200FF5555550B
:1012630055FF000000020C8060088868180FE8082A
:101273000808080002027E010020110D41817F0150
:101283000509300004AE530A57485526BD0D2650B4
:101293000D954446AAB9056A4D09AD4224AEB6047C
:1012A300AE4A6A4DBE0A4D520D25465D52BA0B54E5
:1012B3004E0D6A43296D37095B4B749BC1049754E8
:1012C3000A4B485B25BC06A55006D4454ADAB8024A
:1012D300B64D0957422497B704974A664B3E0D4AC9
:1012E300510EA54656D4BA05AD4E02B64439373829
:1012F300092E4B7C96BF0C95530D4A486DA53B0BAD
:10130300554F056A454AADB9025D4D092D422C95ED
:10131300B60A954A7B4ABD06CA510B5546555ABB78
:1013230004DA4E0A5B43352BB8052B4C8A953F0EE6
:10133300955206AA487AD53C0AB54F04B6454A5792
:10134300390A574D0526423E93350D954975AABE78
:10135300056A51096D4654AEBB04AD4F0A4D434D6A
:1013630026B70D254B8D52BF0B54520B6A47696D3F
:101373003C095B50049B454A4BB90A4B4DAB25C214
:1013830006A55406D4496ADA3D0AB65109374654CC
:1013930097BB04974F064B4436A5370EA54A86B232
:1013A300BF05AC530AB6475936BC092E500C9645B7
:1013B3004D4AB80D4A4C0DA54125AAB6056A497A8E
:1013C300ADBD025D52092D475C95BA0A954E0B4A95
:1013D300434B55370AD54A955ABF04BA530A5B485B
:1013E300652BBC052B500A9345474AB906AA4C0AFC
:1013F300D54124DAB604B64A69573D0A4E510D2643
:10140300465E933A0D534D05AA4336B537096D4BE6
:10141300B4AEBF04AD530A4D486D25BC0D254F0D29
:1014230052445DAA380B5A4C056D4124ADB6049B5A
:101433004A7A4BBE0A4B510AA5465B52BA06D24EB4
:101443000ADA42355B3709374B8497C10497530651
:101453004B4866A53C0EA54F06B2444AB6380AAEC1
:101463004C092E423C97350C96497D4ABD0D4A5195
:101473000DA54555AABA056A4E0A6D43452EB70513
:101483002D4B8A95BF0A95530B4A476B553B0AD59B
:101493004F055A454A5D380A5B4C052B423A93B6D1
:1014A3000693497729BD06AA510AD54654DABA04E8
:1014B300B64E0A57434527380D264A8E933E0D52A2
:1014C300520DAA4766B53B056D4F04AE454A4EB96A
:1014D3000A4D4C0D15412D92B5001F3B5A7897B517
:1014E300D4F301110130014E000303060104060287
:1014F3000500030596B496A6979778797969787766
:1015030096A49696978779797969787896A5879638
:10151300878779696969787886A596A59697887883
:101523007869787896B496A6979778797969787771
:1015330096A49696979779797969787896A58796F8
:10154300878779696969787886A596A59697887853
:101553007869788796B496A6979778797969787732
:1015630096A49696979779797979787896A58796B8
:10157300878779696969787886A596A59697887823
:101583007869778795B496A6979778797869787705
:1015930096B496A6979779797969787896A5979668
:1015A300978779796969787896A596A596978878C3
:1015B3007879778795B496A69697787978697877C6
:1015C30096B496A6979779797969787796A5979639
:1015D300978779796969787896A596A59697887893
:1015E3007879778795B496A5969778797869788787
:1015F30096B496A5969778797869788796A49696FF
:10160300978779796969787896A596A59697887862
:101613007879778795B496A5969778797869788756
:1016230096B496A6979778797969787796A49696DB
:10163300978779796969787896A596A59697887832
:101643007878878795B496A5969788787869788708
:1016530096B496A6979778797969787796A49696AB
:10166300978779797969787896A596A596968878F3
:101673007878878795B496A59697887878697887D8
:1016830096B496A6979778797969787796A496967B
:10169300979779797979787896A596A596968878A3
:1016A3007878878795B496A59697887878697887A8
:1016B30096B496A6979778797969787796A496964B
:1016C300979779797969787896A596A59696887883
:1016D3007878878795B496A5969788787869788778
:1016E30096B496A6979778797969787796A496961B
:1016F300979779797969787896A596A5A696887843
:101703007878878795B496A5969788787879778738
:1017130095B496A6979778797869787796B496A6CC
:10172300979779797969787896A5A6A5A6968888F2
:1017330078788787A5B496A59697887878797787F8
:1017430095B496A5969778797869787796B496A69E
:10175300979779797969787896A5A6A5A6968888C2
:1017630078788787A5B496A59697887878797787C8
:1017730095B496A5969778797869788796B496A65E
:10178300979778797969787796A5A5A5A696888895
:1017930078788787A5B496A5969788787879778798
:1017A30095B496A5969788787869788796B496A61F
:1017B300979778797969787796A4A5A5A696888866
:1017C30088788787A5B496A596968878787887874A
:1017D30095B496A5969788787869788796B496A6EF
:1017E300979778797969787796B4A5A5A696888826
:1017F30088788787A5B496A596968878787887871A
:1018030095B496A5969788787869788796B496A6BE
:10181300979778797969787796B4A5A5A6A68888E5
:1018230088788787A5B496A59696887878788787E9
:1018330095B496A5969788787869788796B496A68E
:10184300979778797969787796A4A5A5A6968888D5
:1018530088788787A5B496A5A696887878788787A9
:1018630095B496A5969788787869788796B496A65E
:10187300979778797869787796A4A5B5A6A6888886
:1018830088788787A5B496A5A69688887878878769
:1018930095B496A5969788787879788795B496A61F
:1018A300969778797869787796A4A5B5A6A6888857
:1018B30088788787A5B496A5A69688887878878739
:1018C30095B496A5969788787879778795B496A5F1
:1018D300969778797869787796B4A5B5A6A6878818
:1018E30088788787A5B4A6A5A696888878788787F9
:1018F300A5B496A5969788787879778795B496A5B1
:10190300969788797869788796B4A5B5A6A68788C7
:1019130088788786A5B4A5A5A696888888788787BA
:10192300A5B496A5969688787879778795B496A581
:10193300969788787869788796B4A5B5A6A6878898
:1019430088788786A5B3A5A5A6968888887887878B
:10195300A5B496A5969688787878878795B496A542
:10196300969788787869788796B4A5B5A6A6878868
:1019730088788786A5B3A5A5A6A68888887887874B
:10198300A5B496A5969688787878878795B496A512
:10199300969788787869788796B4A5B5A6A6878838
:1019A30088788786A5B3A5A5A6A68888887887871B
:1019B300A5B496A5969688887878878795B496A5D2
:1019C300969788787869788796B4A5B5A6A6878808
:1019D30088788786A5B3A5A5A6A6888888788787EB
:1019E300A5B496A5A69688887878878795B496A592
:1019F300969788787869788796B4A5B5A6A68788D8
:101A030087788786A5B3A5B5A6A6888888788787AB
:101A1300A5B496A5A69688887878878795B496A561
:101A2300969788787879788796B4A5B5A5A6878898
:101A330087788786A5B3A5B5A6A68788887887877C
:101A4300A5B496A5A69688887878878795B496A531
:101A5300969788787879778795B4A5B4A5A687886B
:101A630087788786A5C3A5B5A6A68788887887873C
:101A7300A5B4A6A5A696888878788787A5B496A5E1
:101A8300969688787879778795B4A5B4A5A697872D
:101A930087788786A5C3A5B5A6A68788887887860D
:101AA300A5B4A5B5A696888888788787A5B496A592
:101AB300969688787879778795B4A5B4A5A69787FD
:101AC30087788796A5C3A5B5A6A6878888788786CD
:101AD300A5B3A5A5A6A6888888788787A5B496A563
:101AE300969688787878878795B4A5B4A5A69787BE
:101AF30087788796A5C3A5B5A6A68788887887869D
:101B0300A5B3A5A5A6A6888888788787A5B496A532
:101B1300969688787878878795B4A5B4A5A697878D
:101B230087788796A5C3A5B5A6A68788887887866C
:101B3300A5B3A5A5A6A6888888788787A5B496A502
:101B4300A69688887878878795B4A5B4A5A697873D
:101B530087788796A5C3A5B5A6A68788887887863C
:101B6300A5B3A5A5A6A6888888788787A5B496A5D2
:101B7300A69688887878878795B4A5B4A5A697870D
:101B830087788796A5C3A5B5A5A68788877887860E
:101B9300A5B3A5B5A6A6888888788787A5B496A592
:101BA300A69688887878878795B4A5B4A5A69787DD
:101BB30087888796A5C3A5B4A5A6878887788786CF
:101BC300A5B3A5B5A6A6878888788787A5B496A563
:101BD300A69688887878878795B4A5B4A5A59787AE
:101BE30087888696A4C3A5B4A5A697878778878692
:101BF300A5C3A5B5A6A6878888788787A5B4A5A514
:101C0300A696888888788787A5B4A5B4A5A597875D
:101C130097888696A4C3A5B4A5A697878778878651
:101C2300A5C3A5B5A6A6878888788787A5B4A5A5E3
:101C3300A6A6888888788787A5B4A5B4A5A597871D
:101C430087888696A4C3A5B4A5A697878778879621
:101C5300A5C3A5B5A6A6878888788786A5B4A5A5B4
:101C6300A6A6888888788787A5B4A5B4A5A59787ED
:101C730087879696A4C3A5B4A5A6978787788796E2
:101C8300A5C3A5B5A6A6878888788786A5B3A5A585
:101C9300A6A6888888788787A5B4A5B4A5A59787BD
:101CA30087879696A4C3A5B4A5A6978787788796B2
:101CB300A5C3A5B5A6A6878888788786A5B3A5A555
:101CC300A6A6888888788787A5B4A5B4B5A597976D
:101CD30087879696A4C3A5B4A5A697878778879682
:101CE300A5C3A5B5A5A6878887788786A5B3A5A527
:101CF300A6A6888888788787A5B4A5B4B5A597973D
:101D030087879696A4C3A5B4A5A697878788879641
:101D1300A5C3A5B5A5A6878887788786A5B3A5B5E6
:101D2300A6A6878888788787A5B4A5B4B5A597970D
:101D330087879696A4C3A5B4A5A697878788879611
:101D4300A5C3A5B4A5A6978887788786A5B3A5B5A7
:101D5300A6A6878888788787A5B4A5B4B5A59797DD
:101D630087879696A4C3A5B4A5A5978787888696E3
:101D7300A5C3A5B4A5A6978787788786A5C3A5B568
:101D8300A6A6878888788787A5B4B4B4B5A597979E
:101D930097879696B4C3A5B4A5A597878788869693
:101DA300A4C3A5B4A5A6978787788786A5C3A5B539
:101DB300A6A6878888788787A5B4B4B4B5B597975E
:101DC30097879696B4C3A5B4A5A597878788869663
:101DD300A4C3A5B4A5A6978787788796A5C3A5B5F9
:101DE300A6A6878888788786A5B4B4B4B5B597972F
:101DF30097879696B4C3A5B4A5A597878787969624
:101E0300A4C3A5B4A5A6978787788796A5C3A5B5C8
:101E1300A6A6878888788786A5B3B4B4B5B59797FF
:101E230097879696B4C3A5B4A5A5979787879696E3
:101E3300A4C3A5B4A5A6978787788796A5C3A5B598
:101E4300A6A6878888788786001F1C1F1E1F1E1F53
:051E53001F1E1F1E1FF1
:06337900015000015200AA
:0431F3007F147E00C7
:1031F700D3EF9400EE940040147D6E7C00ED1D70BB
:0D320700011CED4C70F7EF1F70E61E80E318
:013214002297
:10329200C2B5D2B4E4F580D2B300AF80C2B3530753
:0A32A20080EF7003D38001C350EAEF
:0132AC0022FF
:10330600AE07123292C2B5C2B48E80D2B30000C2EA
:02331600B322E0
:063380004307B80233060A
:063386004307C0023306FC
:0F32AD00AC031231D053043FAF05123380AF048E
:0932BC0053073F430740023306AB
:06338C0043073E02330678
:0532C500F583E493FF16
:1032CA00AE07123292D2B5C2B48E80D2B30000C217
:0232DA00B3221D
:1031D000EF14600B14601124027017C2B6800BC28A
:1031E000B6000000D2B78007D2B6000000C2B70018
:0331F000000022BA
:103256001231D0E4FDAF05123380E4FF1232BCE434
:0E326600FCE4FF1232CA0CBC40F70DBD08E7B5
:013274002237
:10321500123292E4FF1231D012338CE4FF1231D016
:103225000F12338CE4FF1231D0123256E4FF023311
:013235008612
:063107007B607D047F02E5
:10310D001232ADE4FBFA75F020E575A42BF582E5DE
:10311D00F03AF583E5822447F582E58334001232D7
:10312D00C50BBB00010AEB64104A70DAED04FF1207
:10313D0032B7E4FAFB75F020E575A42BF582E5F0C6
:10314D003AF583E5822457F582E58334001232C5C2
:0B315D000BBB00010AEB64104A70DAA3
:013168002244
:0830A300F575E4FB7D067F01D9
:1030AB001232ADE4FBFA75F020E575A42BF582E541
:1030BB00F03AF583E58224E7F582E5833407123293
:1030CB00C50BBB00010AEB64104A70DAED04FF126A
:1030DB0032B7E4FAFB75F020E575A42BF582E5F029
:1030EB003AF583E58224F7F582E58334071232C57E
:0B30FB000BBB00010AEB64104A70DA06
:0131060022A6
:0B2FD60075F00A8485F0757B487F02CF
:102FE1001232ADE4FBFA75F010E575A42BF582E51C
:102FF100F03AF583E58224E7F582E583340D123258
:10300100C50BBB00010AEB64084A70DAED04FF123C
:1030110032B7E4FAFB75F010E575A42BF582E5F003
:103021003AF583E58224EFF582E583340D1232C54A
:0B3031000BBB00010AEB64084A70DAD8
:01303C002271
:0F333B00EF7F08A2E09292D291C291C313DFF408
:01334A002260
:0F334B007F08C313A29292E7D291C291DFF4FFE1
:01335A002250
:1032DC00AE05C290C291D29012333BAF0612333B73
:0532EC00D291C2902206
:1032F100C290C291D290EF4401FF12333B12334B83
:04330100D291C29013
:0133050022A5
:0F335B003000047D808002E4FD7F8E1232DC2280
:10323600AC05AB07C20012335BAF03EC75F00A8432
:10324600C454F0FEEC75F00A84E5F04EFD0232DC63
:062B2E007B007A00793AF9
:062B34008B598A5A895BEF
:102B3A007F801232F1AD07ED5470C4540F75F00A5C
:102B4A00A4FFED540F7C002FFFEC35F0AB59AA5AC5
:102B5A00A95B8FF01225D37F821232F1AD07ED54B3
:102B6A0070C4540F75F00AA4FFED540F2FAB59AA85
:102B7A005AA95B90000212251F7F841232F1AD0719
:102B8A00ED5470C4540F75F00AA4FFED540F2FAB27
:102B9A0059AA5AA95B90000312251F7F861232F1A7
:102BAA00AD07ED5470C4540F75F00AA4FFED540F2D
:102BBA002FAB59AA5AA95B90000512251F7F8A12CA
:102BCA0032F1AD07ED5470C4540F75F00AA4FFED4D
:102BDA00540F2FAB59AA5AA95B90000412251F7FE4
:102BEA00881232F1AD07ED5470C4540F75F00AA47F
:102BFA00FFED540F2FAB59AA5AA95B900006122574
:102C0A001F7F8C1232F1AD07ED5470C4540F75F06A
:102C1A000AA4FFED540F2FAB59AA5AA95B900007DB
:032C2A0002251F61
:10303D009000071224F275F00A8490000812251FE3
:10304D009000071224F275F00A84900009E5F01241
:10305D00251F9000061224F275F00A8490000A12C2
:10306D00251F9000061224F275F00A8490000BE5DE
:10307D00F012251F9000051224F275F00A849000BD
:10308D000C12251F9000051224F275F00A84900091
:06309D000DE5F002251F05
:092E6D007B007A00793A12303D35
:102E76008B598A5A895B9000031224F275F00A84F2
:102E860090000E12251F9000031224F275F00A849A
:102E960090000FE5F012251F9000021224F275F043
:102EA6000A8490001012251F9000021224F275F079
:102EB6000A84900011E5F012251F1225A8FFAEF036
:102EC6007C007D0A122553AB59AA5AA95B900012C1
:102ED600EF12251F1225A8FFAEF07C007D0A1225F1
:0E2EE60053AB59AA5AA95B900013ED02251FA9
:10332A007F801232F1EF30E707E4FD7F80123236F8
:01333A002270
:042C2D008D72AC07F1
:102C3100E4F573F574F575F576E54F75F064A4AEBA
:102C4100F0AD047C002DF578EC3EF577AF0375759A
:102C5100008F76E4FBFAC3EB9572EA94005015EB12
:102C6100901E4B932576F576E43575F5750BBB0013
:102C7100010A80E2E5785403700EAE77AF78FC7DEF
:102C810064122553ED4C700FAE77AF787C017D90C7
:102C9100122553ED4C700FE572D39402400805766E
:102CA100E576700205757A077B6DC3EB9578EA9539
:102CB10077502BEB5403700EFC7D64AF03AE021210
:102CC1002553ED4C700F7C017D90AF03AE021225B0
:102CD10053ED4C700205730BBB00010A80CCD3E5A8
:102CE10078946CE57794074038E5789434E57794E7
:102CF10008502EAE77AF787C017D6D122541E576C7
:102D01002FFFE5753EFE1CEF2573FFEC3ECF2498A7
:102D1100F576EF3469F575FEAF767D071225538D93
:0A2D210074E5747003757407AF7455
:012D2B002285
:0929D200E4F57AAD7EAC7DAF7630
:1029DB00EF14B40D004003022B2B9029F375F00379
:1029EB00A4C58325F0C58373022A1A022A2F022A53
:1029FB0044022A59022A6E022A83022A98022AAD1D
:102A0B00022AC2022AD7022AEC022B01022B1674CD
:102A1B00872DF58274123CF583E49320E3037F004A
:102A2B00227F012274872DF58274123CF583E49387
:102A3B0020E2037F00227F012274872DF58274121E
:102A4B003CF583E49320E1037F00227F012274870E
:102A5B002DF58274123CF583E49320E0037F002272
:102A6B007F012274882DF58274123CF583E4932048
:102A7B00E7037F00227F012274882DF58274123CBC
:102A8B00F583E49320E6037F00227F012274882DD7
:102A9B00F58274123CF583E49320E5037F00227FDB
:102AAB00012274882DF58274123CF583E49320E4A3
:102ABB00037F00227F012274882DF58274123CF56E
:102ACB0083E49320E3037F00227F012274882DF59A
:102ADB008274123CF583E49320E2037F00227F0192
:102AEB002274882DF58274123CF583E49320E10364
:102AFB007F00227F012274882DF58274123CF583AE
:102B0B00E49320E0037F00227F012274892DF5825C
:102B1B0074123CF583E49320E7037F00227F0122AC
:032B2B007F002206
:082807008E728F738B74AA0519
:10280F007C007D641225538F77AE72AF737C007D91
:10281F00641225538D78E57764136009E5776414A6
:10282F0060037F0022E577B41409E5782463FFE4A1
:10283F00338008E57824FFFFE434FFFE7C007D033E
:10284F001225418E7D8F7E7489257EF58274123517
:10285F007DF583E493FF5460C4135407FEEF541FB8
:10286F00F9BE010514F5758005E9241EF575EAC357
:10287F00940AEA50119014DB93FDE574F582ED256F
:10288F0082FDE433801725E024D1F582E43414F57A
:10289F0083E574FD7401932DFDE4933400CD24FF83
:1028AF00F57CED34FFF57BEAD39402400EE57854C6
:1028BF00037008057CE57C7002057BE575FD7C00E7
:1028CF00C3E57C9DE57B9C406CE57C9DF57CE57BC1
:1028DF009CF57B7A017576011229D2EF70047E1D6B
:1028EF0080027E1E7487257EF5827412357DF583F6
:1028FF00E493C4540FF96002F579EEFD7C00C3E553
:10290F007C9DE57B9C4029E57C9DF57CE57B9CF5DA
:10291F007B0576EAB5010A637AFFE57A70040A80CF
:10292F00010A1229D5EF70047E1D80CE7E1E80CA4B
:10293F00E57C0229BAC3E575957CF575E5787008D5
:10294F007578637577138002157874FD257EF57E93
:10295F0074FF357DF57D7A0CFC7487257EF58274C6
:10296F00123CF583E493C4540FF9700575760C800F
:10297F000375760D1229D2EF70047E1D80027E1E24
:10298F00E575D39E4021E5759EF5751576E57A7050
:10299F00011AEAB50103637AFF1229D5EF70047E9D
:1029AF001D80DD7E1E80D9C3EE957504F5748A39BE
:1029BF0085744EE579B539057535018003E4F53534
:0229CF007F0186
:0129D10022E3
:042EF4008E728F73D8
:102EF800EBD3940F403274F12BFB8F828E83740CCA
:102F08001225F2E5822DF582E43583F583E58224E6
:102F1800DAF582E58334BBF583E493540FB50304F3
:102F28007901803AE4F98036C3740F9BFB8573827C
:102F3800857283740C1225F2E5822DF582E43583BF
:102F4800F583E58224DAF582E58334BBF583E493DF
:102F580054F0C4540FB5030479018002E4F9AF01B9
:012F68002246
:10214C0078597C007D007B007A00793A7E007F1400
:03215C001224CC7E
:10215F00E4FF123386E4F575FBFD7F0112310D7537
:10216F0075017B107F0112310D75750A7B207F0180
:10217F00122FE1E54F75F00A84F5757B287F011268
:10218F002FE1E54F75F00A8485F0757B307F0112E2
:10219F002FE18561757B387F01122FE18562757B99
:1021AF00407F02122FE175750B122FDD8563757B52
:1021BF00507F02122FE18564757B587F02122FE149
:1021CF0075750B7B607F02122FE18565757B687FCC
:1021DF0002122FE18566757B707F02122FE1E56198
:1021EF0075F00AA42562F9E56375F00AA42564F574
:1021FF006EE56575F00AA42566F56FAF01FBAD6E50
:10220F00122C2D8F6D757502E4FB7D027F0112314B
:10221F000D7575037B107F0112310DE56D2403F5EC
:10222F00757B207F0112310D8567757B407F021210
:10223F002FE1856875122FDD75750A7B507F0212AD
:10224F002FE18569757B587F02122FE1856A757BB7
:10225F00607F02122FE175750A7B687F02122FE1F2
:10226F00854C757B707F02122FE1854D757B787FD2
:10227F0002122FE1E54F75F064A4AEF0AD017C00C2
:10228F002DF571EC3EF570E57124FDFFE57034FF1F
:10229F00FE7D0A122553AB05E57124FDFFE5703471
:1022AF00FFFE7C007D0C122553A905EB70027B0A03
:1022BF00E97002790CEB240AF575E4FB7D047F01CC
:1022CF0012310DE92414F5757B107F0112310D7554
:1022DF0075217B207F0112310DAB6FAD6EAF71AEEB
:1022EF0070122807EF640160030223B7E535B401CC
:1022FF000C7575237B307D047F0112310DE539B4E8
:10230F0001057575248006E5392426F5757B401285
:10231F0031097575227B50123109E54E75F00A842B
:10232F00F970137575257B607F0212310DE54E2410
:10233F0026F5750223B0E964017029E54E75F00AA0
:10234F0084E5F0700B7575251231077575308012A5
:10235F00757530123107E54E75F00A84E5F02426C5
:10236F00F575803DE96402702DE54E75F00A84E540
:10237F00F0700D7575281231077575307B608023ED
:10238F00757526123107E54E75F00A84E5F024269F
:10239F00F5757B70800DE92426F57512310775757B
:1023AF00307B707F0212310DAB6FAD6EAF71AE70BF
:1023BF00122EF4EF64017034E56FD3940FE56E4085
:1023CF001225E025E024FE1230A3E56E25E025E07E
:1023DF001480101425E025E01230A3E56E25E025CA
:0C23EF00E024FDF5757B107F011230AB7F
:0123FB0022BF
:101E580075A0FEE5A064FE60541231F3E5A064FEAF
:101E6800602AE5A054F0F53705522490601B24C081
:101E7800601224E0600924F07012E4F533800D75D7
:101E8800330180087533028003753303E5A0B4FE7F
:101E9800FBE533600F6401600BE53364026005E520
:101EA80033B4030974222550F8A633055075A0FDF4
:101EB800E5A064FD60581231F3E5A064FD602AE5F1
:101EC800A054F0F53705522490601B24C0601224FA
:101ED800E0600924F07012753304800D75330580B5
:101EE800087533068003753307E5A0B4FDFBE533B9
:101EF80064046011E5336405600BE533640660052E
:101F0800E533B4070974222550F8A633055075A0A7
:101F1800FBE5A064FB607B1231F3E5A064FB60285D
:101F2800E5A054F0F5372490601B24C0601224E02B
:101F3800600924F07012753308800D753309800824
:101F480075330A800375330BE5A0B4FBFBE53364F6
:101F5800086005E533B4090B055274222550F8A62C
:101F6800330550E533640B7029E552D39408E552E4
:101F780075F008500BA42438FB75750C7D02800998
:101F8800A424F8FB75750C7D047F02122FE115520D
:101F9800155075A0F7E5A064F770030220F412311C
:101FA800F3E5A064F76028E5A054F0F537249060C5
:101FB8001B24C0601224E0600924F0701275330CF1
:101FC800800D75330D800875330E800375330FE56A
:101FD800A0B4F7FBE53324F3602424FE7003022049
:101FE8008B240360030220F4E4FF12325675753720
:101FF8007B20E4FD7F0112310D7575388014E4FFF4
:1020080012325675753B7B20E4FD7F0112310D7548
:10201800753C7B307F0112310D7575397B407F022D
:1020280012310D75753A7B507F0212310D7575337B
:10203800E4FB7D027F0112310D7575347B107F0141
:1020480012310D7575357B207F0112310D7575368E
:102058007B307F0112310D757533E4FB7D047F0100
:1020680012310D7575347B107F0112310D7575377E
:102078007B207F0112310D7575387B307F0112315D
:102088000D8069E552640E7063FF123256E52275C1
:10209800F00AA42523F54FE52475F00AA42525F5B3
:1020A80034E52675F00AA42527F531E52875F00AE8
:1020B800A42529F536E52A75F00AA4252BF538E577
:1020C8002C75F00AA4252DF530E52E75F00AA42507
:1020D8002FF521753201E4F55074222550F8E4F605
:1020E8000550E550B40EF2E4F550F552E552D3949C
:1020F800085026E4F551E551C395525046E551750F
:10210800F008A42440FB74222551F8E6F5757D02F9
:102118007F02122FE1055180DDE4F551E55224F8E4
:10212800FFE551C39F501CE55175F008A42440FBFE
:10213800742A2551F8E6F5757D047F02122FE10512
:042148005180D922C7
:1031690075A0F0E5A064F060337F0A7E001231F7A4
:1031790075A0F0E5A064F06023AFA075A00FE5A0ED
:103189004FFFC374FF9FFFE4FEEE90003793B5072E
:0E31990004AB0680040EBE10F0AF03227FFFD1
:0131A7002205
:102F6900E4F557F558AF58EF90001D937007EF90AF
:102F79000003936057E4FDFCE55890001D9375F03C
:102F890014A4FFC3ED9FEC95F05026B295E4FFFE23
:102F9900E5589000039375F00384FBC3EF9BEE940F
:102FA9000050070FBF00010E80E60DBD00010C8027
:102FB900C7122B2E122E6D12214C7F0A7E00123160
:0C2FC900F70558E558709E0557022F6E62
:012FD50022D9
:0E336A007F06E55DD394004005155D1F80F4DD
:013378002232
:10331800AD071FED600BE4FEEEC394FA50F20E8089
:01332800F7AD
:013329002281
:10327500D29412336AC2947F14123318D294123343
:0D3285006A12336A12336A12336A02336A26
:1031A800E4FC3094FDE4FD12336A12336A12336A88
:1031B80012336A3094010D2094FDEE25E0FEED42B5
:0731C800060CBC08DDAF0698
:0131CF0022DD
:102D2C001232752094543094FDE4FE12336A0EBEB8
:102D3C0008F91231A88F571231A88F581231A8AB4D
:102D4C00071231A8AA071231A88F5CC29412336AF9
:102D5C00D294E5572558FFE433FEEB7C002FFFECB3
:102D6C003EFEEA2FFFEC3EFEEFB55C0EECB5060A1C
:102D7C0085575985585AA9038A5BE55975F00A8419
:102D8C00F5757B407D067F02122FE1E559122FD697
:102D9C007575137B507F02122FE17575107B587F70
:102DAC0002122FE17575117B607F02122FE1E9751C
:102DBC00F00A84F5757B687F02122FE1E975F00A41
:102DCC008485F0757B707F02122FE17575127B780C
:052DDC007F02022FE15F
:1026030012332A123215D293C295E4FF1232567551
:102613004F14122B2E122E6D12214C122D2C12310F
:10262300698F54E554F460EAE554640C7053121E48
:1026330058E5326401703FAD217F80123236AD30F0
:102643007F82123236AD387F84123236AD367F86C2
:10265300123236AD317F88123236AD347F8C12326E
:1026630036122B2E122E6D12214C123169BF0AF134
:10267300755301E4F532E553B401B3E4F55302268F
:1026830015E554640E6003022714E54875F00AA4A7
:102693007C002549FFEC35F0FEC3EF940DEE64801A
:1026A3009480401185485585495615481549154963
:1026B30075750E800985485585495675750D7B30AE
:1026C3007D027F01122FE175750F7B387F01122F79
:1026D300E1E54875F00AA42549F538FD7F841232F7
:1026E3003612214C123169BF0AF7E55575F00AA479
:1026F3002556FD7F8412323675750C7B307D027F43
:1027030001122FE175750C7B387F01122FE1022630
:1027130015E554640D6003022615121E58E5326454
:102723000160030227CB122B2E122E6D12214CE5D2
:102733003875F00A84F5757B407D067F02122FE120
:10274300E538122FD675750A7B507F02122FE1E50B
:102753003075F00A84F5757B587F02122FE1E5305E
:1027630075F00A8485F0757B607F02122FE1757521
:102773000A7B687F02122FE1E52175F00A84F57563
:102783007B707F02122FE1E52175F00A8485F075D5
:102793007B787F02122FE1E53465417022E531B584
:1027A300401DE536B53F18E538B53D13E530B53C7A
:1027B3000EE521B53B09E4B53A057553018006E4FE
:1027C300F553022729E4F532E55364016003022738
:1027D3001DC293122F697FF47E011231F7D293E465
:1027E300F553E55375F008A42440FB75750C7D067D
:1027F3007F02122FE10553E553C3940840E4E4F547
:042803005302261541
:03000000022DE1ED
:0C2DE100787FE4F6D8FD75817E022E2874
:1023FC00E709F608DFFA8046E709F208DFFA803EC3
:10240C0088828C83E709F0A3DFFA8032E309F608AF
:10241C00DFFA8078E309F208DFFA807088828C8317
:10242C00E309F0A3DFFA806489828A83E0A3F608CB
:10243C00DFFA805889828A83E0A3F208DFFA804CA5
:10244C0080D280FA80C680D4806980F2803380107C
:10245C0080A680EA809A80A880DA80E280CA8033E5
:10246C0089828A83ECFAE493A3C8C582C8CCC5835D
:10247C00CCF0A3C8C582C8CCC583CCDFE9DEE7802D
:10248C000D89828A83E493A3F608DFF9ECFAA9F0AC
:10249C00EDFB2289828A83ECFAE0A3C8C582C8CC02
:1024AC00C583CCF0A3C8C582C8CCC583CCDFEADE1B
:1024BC00E880DB89828A83E493A3F208DFF980CC7D
:1024CC0088F0EF60010E4E60C388F0ED2402B40476
:1024DC000050B9F582EB2402B4040050AF2323451D
:0624EC00822390244C73D2
:1024F200BB010CE58229F582E5833AF583E022509F
:1025020006E92582F8E622BBFE06E92582F8E222E8
:0D251200E58229F582E5833AF583E4932202
:10251F00F8BB010DE58229F582E5833AF583E8F0F2
:10252F00225006E92582C8F622BBFE05E92582C89E
:02253F00F22286
:10254100EF8DF0A4A8F0CF8CF0A428CE8DF0A42EAE
:02255100FE2268
:10255300BC000BBE0029EF8DF084FFADF022E4CC6C
:10256300F875F008EF2FFFEE33FEEC33FCEE9DEC35
:10257300984005FCEE9DFE0FD5F0E9E4CEFD22ED7B
:10258300F8F5F0EE8420D21CFEADF075F008EF2FC5
:10259300FFED33FD4007985006D5F0F222C398FDB6
:0525A3000FD5F0EA2253
:1025A800BB010A89828A83E0F5F0A3E022500687FE
:1025B800F009E71922BBFE07E3F5F009E3192289C0
:0B25C800828A83E493F5F074019322F3
:1025D300BB010A89828A83F0E5F0A3F0225006F753
:0F25E30009A7F01922BBFE06F3E5F009F3192250
:1025F200F5F0C582A4C582C5F0C583A42583F58301
:0126020022B5
:102DED00022603E493A3F8E493A34003F68001F2D3
:102DFD0008DFF48029E493A3F85407240CC8C333E7
:102E0D00C4540F4420C8834004F456800146F6DFB5
:102E1D00E4800B0102040810204080903379E47E99
:102E2D00019360BCA3FF543F30E509541FFEE493AA
:102E3D00A360010ECF54C025E060A840B8E493A371
:102E4D00FAE493A3F8E493A3C8C582C8CAC583CA9C
:102E5D00F0A3C8C582C8CAC583CADFE9DEE780BE54
:01337F00004D
:00000001FF
