:1000B50000FEFDFBF7EFDFBF7F00F3496133250548
:0200C500F10147
:10000300907DFFE0F5082481700302008D24C06019
:100013006B24E0605924F0604724F8603524FC60C9
:100023002324FE60111470749000BFE493907EFF4C
:10003300F09000B680609000C0E493907EFFF09053
:1000430000B780529000C1E493907EFFF09000B817
:1000530080449000C2E493907EFFF09000B9803614
:100063009000C3E493907EFFF09000BA8028900044
:10007300C4E493907EFFF09000BB801A9000C5E427
:1000830093907EFFF09000BC800C9000C6E49390A8
:0D0093007EFFF09000BDE493907CFFF02212
:1000A000907FFF7482F0907CFF74FFF0907EFFF0F1
:0500B00012000380FBBB
:030000000200C734
:0C00C700787FE4F6D8FD7581080200A0E7
:00000001FF
