:10011000052A000000000011082050656368696E20
:1001200020536369656E6365200011192048656C72
:0D0130006C6F2020576F726C64212020003E
:10000300120182E4F53174082531F8E6FF1201B8D4
:090013000531E531C3941040ED04
:01001C0022C1
:10016800120182E4F53174192531F8E6FF1201B85D
:090178000531E531C3941040ED9E
:01018100225B
:10019B00759850438920758DFD758BFDD28ED2AF2E
:0301AB00D2AC22B1
:0801C2008F993099FDC29922CA
:030023000200B226
:1000B200C0E0C0F0C083C082C0D075D000C000C014
:0D00C20001C002C003C004C005C006C00795
:1000CF00309823C298AF99752F008F30E52F701697
:1000DF00E53024FE600804700D1200038003120146
:0600EF0068AF301201C2EF
:1000F500D007D006D005D004D003D002D001D0005F
:0B010500D0D0D082D083D0F0D0E03208
:0801CA0012018212019B80FE6C
:10013E00C2A58F807F017E0012014FD2A77F057E60
:01014E0000B0
:10014F00D3EF9400EE9400400F7DC77C01DCFEDD01
:08015F00FAEF1F70EB1E80E8AF
:010167002275
:0A01AE00C2A7C2A612013EC2A7229A
:0A01B800C2A7D2A612013EC2A72280
:100182007F381201AE7F0C1201AE7F061201AE7FE4
:09019200011201AE7F800201AEF2
:03000000020026D5
:0C002600787FE4F6D8FD75813102006D92
:100032000201CAE493A3F8E493A34003F68001F219
:1000420008DFF48029E493A3F85407240CC8C333CF
:10005200C4540F4420C8834004F456800146F6DF9E
:10006200E4800B0102040810204080900110E47E1D
:10007200019360BCA3FF543F30E509541FFEE49393
:10008200A360010ECF54C025E060A840B8E493A35A
:10009200FAE493A3F8E493A3C8C582C8CAC583CA85
:1000A200F0A3C8C582C8CAC583CADFE9DEE780BE3D
:01013D0000C1
:00000001FF
