:1000030048656C6C6F2045766572796F6E65005735
:0F001300656C636F6D6520746F20534455210039
:10003D00D3EF9400EE9400400DE4FD0DBD02FCEFF6
:06004D001F70ED1E80EAA9
:01005300228A
:10007E00C2A6C2A58F80D2A7C2A77F017E000200B2
:01008E003D34
:10008F00D2A6C2A58F80D2A7C2A77F017E00020091
:01009F003D23
:100022007F3812007E7F0C12007E7F0612007E7FD8
:0B0032000112007E7F647E0002003D92
:10006B00120022E4FCEC90001293FF12008F0CBCE8
:02007B000FF381
:01007D002260
:1000540012002212006B7FC012007E7F2112008FDB
:070064007F7A12008F80FE7D
:030000000200A05B
:0C00A000787FE4F6D8FD7581070200545B
:00000001FF
