:020000000130CD
:100030007581607530017531007532FEE532F590DD
:1000400075330075340075330012009AE533600390
:100050001200F1853290E53190012B93F9E5319052
:10006000013493F580E5307008E53203F532020083
:1000700076E53223F532F590E975F00884F912003F
:1000800090D9FB0200467EC87DF8DDFE00DEF92235
:100090007F647E17DEFE00DFF92275B03CE5B054C8
:1000A00030B430030200F012008675B03CE5B05465
:1000B00030B430097533007534000200F044C0F5E7
:1000C0003475B03EE5B05430C39430701575B03D12
:1000D000E5B05430C39430700D75330075340002B0
:1000E00000F0740E8002740D4534F4F5347533015C
:1000F00022E534B4110675300102012AB4210675D7
:10010000300002012AB4120D0531E531B4051B752A
:10011000310402012AB4220CE531B4000205311584
:100120003102012A75330075340022C8A0785028A6
:09013000221221110F171B1D1EE4
:00000001FF
