:020000000130CD
:10003000758160C2D5D29212009CD29120910AD2D1
:10004000913091FB12009CC2D5D290209007D290A3
:100050003090FBB2D530D50DC2921200C0120069AB
:1000600012007380D5D29280D17A647930D9FE00A3
:10007000DAF9220530E530B40A217530000531E5A2
:1000800031B40A177531000532E532B40A0D753204
:10009000000533E533B40A0375330022753000756B
:1000A0003100753200753300E49000E99390FE0052
:1000B000F090FD00F090FB00F090F700F0D292225B
:1000C000E5309000E99390FE00F0E5319000E9936F
:1000D00090FD00F0E5329000E99390FB00F0E533ED
:1000E0009000E99390F700F022C0F9A4B0999282B1
:0300F000F8809005
:00000001FF
