:09019300012700012600012500EE
:10012F00D3EF9400EE9400400DE4FD0DBD02FCEF03
:06013F001F70ED1E80EAB6
:010145002297
:10017100C2A6C2A58F80D2A7C2A77F017E000201BD
:010181002F4E
:10018200D2A6C2A58F80D2A7C2A77F017E0002019C
:010192002F3D
:100003007F381201717F0C1201717F061201717F1B
:0B001300011201717F647E0002012FCA
:10015C00120003E4FC74162CF8E62430FF12018222
:04016C000CBC0FF1C7
:01017000226C
:10014600759850758920758780758DF3758BF3D2F8
:06015600ACD2AFD28E22F4
:08019D0012014612000380FE6E
:030023000200B226
:1000B200C0E0C0D075D000C000C004C005C006C0FA
:1000C2000730985A74162527F8A699C298741625EF
:1000D20027F8E6F5993099FDC2990527E527C394DB
:1000E2000F403B75270012015C752500741725250A
:1000F200F8E6FF74082525F8A6070525E525B40EC0
:10010200EB7FC012017175250074082525F8E624DD
:1001120030FF1201820525E525C3940E40EBD0077E
:0D012200D006D005D004D000D0D0D0E032FF
:03000000020026D5
:0C002600787FE4F6D8FD75812702006D9C
:1000320002019DE493A3F8E493A34003F68001F246
:1000420008DFF48029E493A3F85407240CC8C333CF
:10005200C4540F4420C8834004F456800146F6DF9E
:10006200E4800B0102040810204080900193E47E9A
:10007200019360BCA3FF543F30E509541FFEE49393
:10008200A360010ECF54C025E060A840B8E493A35A
:10009200FAE493A3F8E493A3C8C582C8CAC583CA85
:1000A200F0A3C8C582C8CAC583CADFE9DEE780BE3D
:01019C000062
:00000001FF
