:0300000002048B6C
:0C048B00787FE4F6D8FD75813C0202FE8B
:0A04A2003031323334353637383943
:040431007F057E00C5
:10043500D3EF9400EE940040147D6E7C00ED1D70AA
:0D044500011CED4C70F7EF1F70E61E80E308
:010452002287
:10000600C2B0D2B1D2B400000000E590339201C272
:03001600B4A20190
:0100190022C4
:1004530012000640FBC2B0C2B1C2B400008F9000CC
:0C046300000000D2B400000000C2B4226F
:0B0497007F011204530F7E00020435A9
:10046F0012000640FBD2B0C2B1C2B400008F9000A0
:0C047F00000000D2B400000000C2B42253
:100407001204317F011204531204317F0612045380
:100417001F7E001204357F0C1204531204317F38FB
:0A0427001204537F0F7E000204351B
:1003A300EF14600E14600F146010240370117F802B
:1003B300800A7FC080067F9080027FD0120453E4BE
:1003C300FB74272BF8E6FF600912046F1204310B4C
:0203D30080EFB9
:0103D5002205
:030003000203D61F
:1003D600C0E0C0D075D000C004C005C006C0077517
:1003E60080FF7F017E00120435D2B7858037C2B701
:1003F600D200C2A8D007D006D005D004D0D0D0E015
:0104060032C3
:03001B000204AC30
:0304AC00B2B532B4
:1001A2008F083000FDAF37E4FCFDFE7B887A13F93F
:1001B200F81200858F248E238D228C21E47BFFFA96
:1001C200F9F812035F8E388F39E5394538703CF5FE
:1001D2003BAF3B053B74272FF87643AF3B053B749F
:1001E200272FF87668E5082430FFAE3B053B7427DD
:1001F2002EF8A607AF3B053B74272FF8763AAF3BA4
:10020200053B74272FF876300202ECE4F53BAF3B56
:10021200053B74272FF87643AF3B053B74272FF835
:100222007668E5082430FFAE3B053B74272EF8A61E
:1002320007AF3B053B74272FF8763A853825853979
:1002420026AE25AF267C037DE81200308F3C7E006F
:100252007C037DE812001EC3E5269FF526E5259E58
:10026200F525E53C9004A293FFAE3B053B74272E97
:10027200F8A607AF3B053B74272FF8762EAE25AFC5
:10028200267C007D641200308F3C7E007C007D6401
:1002920012001EC3E5269FF526E5259EF525E53CC1
:1002A20093FFAE3B053B74272EF8A607AE25AF267B
:1002B2007D0A1200308F3C7E007C007D0A12001EF7
:1002C200C3E5269FF526E5259EF525E53C93FFAE81
:1002D2003B053B74272EF8A60785263CE53C93FF99
:1002E200AE3B053B74272EF8A607AF3B053B7427B0
:0C02F2002FF876567427253BF8E4F6221E
:1002FE007F0A7E001204351204071204977F027ED5
:10030E0000120435E4F53AF538F5397427253BF833
:10031E00E4F6C2B5C2B7758920758DE7758BE7D245
:10032E00AFD2A8D288D2ABD28EC200D2A8853AA0C4
:10033E00D2B37F027E00120435C2B3AF3A1201A2CD
:10034E00AF3A1203A3053AE53AB404DDE4F53A8078
:01035E00D8C6
:10001E00EF8DF0A4A8F0CF8CF0A428CE8DF0A42EF6
:02002E00FE22B0
:10003000BC000BBE0029EF8DF084FFADF022E4CCB4
:10004000F875F008EF2FFFEE33FEEC33FCEE9DEC7D
:10005000984005FCEE9DFE0FD5F0E9E4CEFD22EDC3
:10006000F8F5F0EE8420D21CFEADF075F008EF2F0D
:10007000FFED33FD4007985006D5F0F222C398FDFE
:050080000FD5F0EA229B
:10008500E88FF0A4CC8BF0A42CFCE98EF0A42CFC1A
:100095008AF0EDA42CFCEA8EF0A4CDA8F08BF0A498
:1000A5002DCC3825F0FDE98FF0A42CCD35F0FCEBF7
:1000B5008EF0A4FEA9F0EB8FF0A4CFC5F02ECD39BC
:0F00C500FEE43CFCEAA42DCE35F0FDE43CFC2229
:10035F00C2D5E830E70FB2D5E4C39BFBE49AFAE4C9
:10036F0099F9E498F8EC30E717B2D512039512011A
:10037F0010E4C39BFBE49AFAE499F9E498F880033C
:10038F0012011030D50DE4C39FFFE49EFEE49DFDE6
:04039F00E49CFC22BC
:1000D40075F008758200EF2FFFEE33FECD33CDCCE3
:1000E40033CCC58233C5829BED9AEC99E582984066
:1000F4000CF582EE9BFEED9AFDEC99FC0FD5F0D643
:10010400E4CEFBE4CDFAE4CCF9A88222B800C1B96C
:100114000059BA002DEC8BF084CFCECDFCE5F0CBAA
:10012400F97818EF2FFFEE33FEED33FDEC33FCEBE3
:1001340033FB10D703994004EB99FB0FD8E5E4F99E
:10014400FA227818EF2FFFEE33FEED33FDEC33FC8B
:10015400C933C910D7059BE99A4007EC9BFCE99A7F
:10016400F90FD8E0E4C9FAE4CCFB2275F010EF2FC4
:10017400FFEE33FEED33FDCC33CCC833C810D707C4
:100184009BEC9AE899400AED9BFDEC9AFCE899F8FF
:0E0194000FD5F0DAE4CDFBE4CCFAE4C8F92292
:00000001FF
