:0600730090FE00E0F5081C
:07007900750AC8D50AFD223B
:10005800750C01750DF4750AC8D50AFDE50D150D69
:0B0068007002150CE50D450C70EC2239
:10000300758920C29FD29ED29CE4F587758DFD75BC
:100013008BFDD28E1200738508903098FD85990967
:10002300C298120073E50924FE601D0470EC750B81
:100033000AE50BD3940040E27590881200588508B6
:1000430090120058150B80E985089085089930991E
:05005300FDC29980C50B
:030000000200807B
:0C008000787FE4F6D8FD75810D020003C6
:00000001FF
