:0300000002097979
:0C097900787FE4F6D8FD75812002098526
:100945000001020304050607080900000000000075
:1009550000010203040506070809FBFDFAFFD10D96
:040902007F147E00E0
:10090600D3EF9400EE940040147D6E7C00ED1D70D4
:0D091600011CED4C70F7EF1F70E61E80E332
:0109230022B1
:10096500C297D296D29500000000E5A0339200C24E
:0309750095A20048
:01097800225C
:050924008512187F019F
:1009290012096540FBC297C296C29500008FA000CC
:0C093900000000D29500000000C29522D2
:0D08D600E47B0AFAF9F8120892EB2430FFD7
:1008E300E4F5A012096540FBD297C296C2950000B9
:0F08F3008FA000000000D29500000000C29522E7
:10083800E4F5127F0FFE1209067F381209297F0599
:100848007E001209067F0C1209297F057E00120915
:10085800067F061209291F7E001209067F01120968
:10086800297F057E00120906E4F519F51AF50BF53E
:100878000AF509F508F50FF50EF50DF50CF517F560
:0A08880016F515F514F511F5102210
:1000030075B0FEE5B064FE700302010E120902E54D
:10001300B064FE6028E5B054F0F5132490601B240F
:10002300C0601224E0600924F07012E4F512800D20
:1000330075120180087512028003751203E5B0B4CE
:10004300FEFBE51260136401600FE51264026009B0
:10005300E512640360030200F3E51A600C1209243D
:10006300120838851812E4F51AE51170427F0AFE6A
:10007300FDFCAB0BAA0AA909A808120705A804A945
:1000830005AA06AB07AF12EF3395E0FE74452FF5D3
:100093008274093EF583E493FFE4FCFDFEEB2FF548
:1000A3000BEE3AF50AED39F509EC38F5088041E431
:1000B3007F0AFEFDFCAB0FAA0EA90DA80C120705C3
:1000C300A804A905AA06AB07AF12EF3395E0FE74A7
:1000D300452FF58274093EF583E493FFE4FCFDFEAE
:1000E300EB2FF50FEE3AF50EED39F50DEC38F50C77
:1000F300AF12EF3395E0FE74552FF58274093EF588
:1001030083E493F5192430FF1208E375B0FDE5B0DD
:1001130064FD700302021D120902E5B064FD60284C
:10012300E5B054F0F5132490601B24C0601224E062
:10013300600924F07012751204800D751205800891
:100143007512068003751207E5B0B4FDFBE5126472
:10015300046015E5126405600FE51264066009E5A5
:100163001264076003020202E51A600C12092412EA
:100173000838851812E4F51AE51170427F0AFEFD6E
:10018300FCAB0BAA0AA909A808120705A804A9052C
:10019300AA06AB07AF12EF3395E0FE74452FF58245
:1001A30074093EF583E493FFE4FCFDFEEB2FF50BAE
:1001B300EE3AF50AED39F509EC38F5088041E47FAC
:1001C3000AFEFDFCAB0FAA0EA90DA80C120705A889
:1001D30004A905AA06AB07AF12EF3395E0FE7445F9
:1001E3002FF58274093EF583E493FFE4FCFDFEEBF7
:1001F3002FF50FEE3AF50EED39F50DEC38F50CAFA2
:1002030012EF3395E0FE74552FF58274093EF583A2
:10021300E493F5192430FF1208E375B0FBE5B064ED
:10022300FB7003020336120902E5B064FB6028E5A4
:10023300B054F0F5132490601B24C0601224E060D6
:100243000924F07012751208800D75120980087563
:10025300120A800375120BE5B0B4FBFBE5126408C8
:100263006009E51264096003020305E51A600C12D4
:100273000924120838851812E4F51AE51170427F33
:100283000AFEFDFCAB0BAA0AA909A808120705A8D8
:1002930004A905AA06AB07AF12EF3395E0FE744538
:1002A3002FF58274093EF583E493FFE4FCFDFEEB36
:1002B3002FF50BEE3AF50AED39F509EC38F5088020
:1002C30041E47F0AFEFDFCAB0FAA0EA90DA80C1298
:1002D3000705A804A905AA06AB07AF12EF3395E0FB
:1002E300FE74452FF58274093EF583E493FFE4FC25
:1002F300FDFEEB2FF50FEE3AF50EED39F50DEC386B
:10030300F50CE512B40A06751101751001E512B476
:100313000B06751101751002AF12EF3395E0FE74F1
:10032300552FF58274093EF583E493F5192430FFC4
:100333001208E375B0F7E5B064F77003020704121F
:100343000902E5B064F76028E5B054F0F513249092
:10035300601B24C0601224E0600924F0701275123F
:100363000C800D75120D800875120E800375120F27
:10037300E5B0B4F7FBE51224F36030147003020612
:10038300E714604724036003020704AF12EF3395B9
:10039300E0FE74552FF58274093EF583E49324300F
:1003A300FF1208E375110175100322AF12EF3395A5
:1003B300E0FE74552FF58274093EF583E4932430EF
:1003C300FF1208E375110175100422751A01AF0FAE
:1003D300AE0EAD0DAC0CEC4D4E4F703B7FCF120902
:1003E300297F04120929AF0BAE0AAD09AC08EC4D05
:1003F3004E4F601E1208D6AF0BAE0AAD09AC08E42F
:100403007B0AFAF9F81208928F0B8E0A8D098C0871
:1004130080D47F3D1208E3E510640170517FCF1251
:1004230009297F04120929E50B250FF517E50A357C
:100433000EF516E509350DF515E508350CF514AF80
:1004430017AE16AD15AC14EC4D4E4F700302057389
:100453001208D6AF17AE16AD15AC14E47B0AFAF941
:10046300F81208928F178E168D158C1480D1E51013
:10047300640260030205227FCF1209297F04120957
:1004830029C3E50B950FFFE50A950EFEE509950DCA
:10049300FDE508950CFCE4FBFAF9F8C31207545088
:1004A3001BC3E50B950FF517E50A950EF516E50940
:1004B300950DF515E508950CF5148019C3E50F9511
:1004C3000BF517E50E950AF516E50D9509F515E5F6
:1004D3000C9508F514AF17AE16AD15AC14EC4D4ED4
:1004E3004F601E1208D6AF17AE16AD15AC14E47BE1
:1004F3000AFAF9F81208928F178E168D158C14804C
:10050300D4C3E50B950FE50A950EFEE509950DFDA0
:10051300E508950CFC3350057F2D1208E38051E567
:1005230010640370537FCF1209297F04120929AF86
:100533000FAE0EAD0DAC0CAB0BAA0AA909A808129D
:1005430007058022AF17AE16AD15AC14EC4D4E4F18
:10055300601E1208D6AF17AE16AD15AC14E47B0AB5
:10056300FAF9F81208928F178E168D158C1480D411
:100573007F3D1208E30206ECE51064046003020702
:10058300047FCF1209297F04120929E4F519AF0F5B
:10059300AE0EAD0DAC0CEC4D4E4F70177F521208E2
:1005A300E37F4F1208E37F521208E31208E37F450B
:1005B3000206E2AB0FAA0EA90DA80CAF0BAE0AAD53
:1005C30009AC081208928F178E168D158C14AB0F79
:1005D300AA0EA90DA80C120705A804A905AA06C30B
:1005E300E50B9FF517E50A9AF516E50999F515E563
:1005F3000898F514AF17AE16AD15AC14EC4D4E4F6D
:1006030060201208D6AF17AE16AD15AC14E47B0A02
:10061300FAF9F81208928F178E168D158C14051996
:1006230080D2E51960657519037F2E1208E3151949
:10063300D3E5196480948050F0AB0FAA0EA90DA8DE
:100643000CAF0BAE0AAD09AC081208928F178E16C9
:100653008D158C14EC4D4E4F70057F301208E3AFAF
:1006630017AE16AD15AC14EC4D4E4F60701208D694
:10067300AF17AE16AD15AC14E47B0AFAF9F81208FD
:10068300928F178E168D158C1480D4AB0FAA0EA9DA
:100693000DA80CAF0BAE0AAD09AC081208928F1768
:1006A3008E168D158C14EC4D4E4F70057F3012084D
:1006B300E3AF17AE16AD15AC14EC4D4E4F601E12E2
:1006C30008D6AF17AE16AD15AC14E47B0AFAF9F8E9
:1006D3001208928F178E168D158C1480D47F3D12BD
:1006E30008E380057F01120929751A01E4F50BF56A
:1006F3000AF509F508F50FF50EF50DF50CF511F5ED
:020703001022C2
:0809850012083812000380FB88
:10070500E88FF0A4CC8BF0A42CFCE98EF0A42CFC93
:100715008AF0EDA42CFCEA8EF0A4CDA8F08BF0A411
:100725002DCC3825F0FDE98FF0A42CCD35F0FCEB70
:100735008EF0A4FEA9F0EB8FF0A4CFC5F02ECD3935
:0F074500FEE43CFCEAA42DCE35F0FDE43CFC22A2
:10089200C2D5E830E70FB2D5E4C39BFBE49AFAE491
:1008A20099F9E498F8EC30E717B2D51208C81207A4
:1008B200A6E4C39BFBE49AFAE499F9E498F880036E
:1008C2001207A630D50DE4C39FFFE49EFEE49DFD12
:0408D200E49CFC2284
:10075400EB9FF5F0EA9E42F0E99D42F0EC6480C81C
:0607640064809845F022BC
:10076A0075F008758200EF2FFFEE33FECD33CDCC46
:10077A0033CCC58233C5829BED9AEC99E5829840C9
:10078A000CF582EE9BFEED9AFDEC99FC0FD5F0D6A6
:10079A00E4CEFBE4CDFAE4CCF9A88222B800C1B9D0
:1007AA000059BA002DEC8BF084CFCECDFCE5F0CB0E
:1007BA00F97818EF2FFFEE33FEED33FDEC33FCEB47
:1007CA0033FB10D703994004EB99FB0FD8E5E4F902
:1007DA00FA227818EF2FFFEE33FEED33FDEC33FCEF
:1007EA00C933C910D7059BE99A4007EC9BFCE99AE3
:1007FA00F90FD8E0E4C9FAE4CCFB2275F010EF2F28
:10080A00FFEE33FEED33FDCC33CCC833C810D70727
:10081A009BEC9AE899400AED9BFDEC9AFCE899F862
:0E082A000FD5F0DAE4CDFBE4CCFAE4C8F922F5
:00000001FF
