:020000000130CD
:1000300075816078007901D2B0C2D520910BC2D50C
:1000400088308931D2B012006B2090EF12006B1211
:10005000009512008020D50302004CC2B01200951A
:10006000D2B01200952091F302003EE5309000B727
:100070009390FE00F0E5319000B79390FD00F022E0
:100080001530E530B4FF0D7530091531E531B4FF99
:1000900003D2D522227F0A7EC87DF8DDFE00DEF97C
:1000A000DFF5227EC87DF8DDFE00DEF7227E647D6E
:1000B00030DDFE00DEF722C0F9A4B0999282F8800C
:0100C00090AF
:00000001FF
