:020000000130CD
:1000300075816075900075300075310012005BE5C8
:100040003060F37532007533001200D4E53270E68B
:10005000900109E53393F59002003675B0F0E5B0F4
:1000600054F0B4F00280F41200EF75B0F0E5B05433
:10007000F0B4F0097531007530000200D3F5317528
:10008000B0FEE5B054F0C394F06005740E0200CBEE
:1000900075B0FDE5B054F0C394F06005740D020036
:1000A000CB75B0FBE5B054F0C394F06005740B025F
:1000B00000CB75B0F7E5B054F0C394F06005740759
:1000C0000200CB75310075300080084531F4F53100
:1000D000753001229000F9E53393C39531600C052A
:1000E00033E533B410EE7532018003753200227AA5
:1000F000647930D9FE00DAF92211214181122242BD
:100100008214244484182848883F065B4F666D7D1E
:09011000077F6F777C395E79717D
:00000001FF
