:1000470011214181122242821424448418284888AD
:100057003F065B4F666D7D077F6F777C395E7971F1
:0E0067007F507EC3EF1FAC0670011E4C70F67A
:010075002268
:0E0076007F107E27EF1FAC0670011E4C70F647
:010084002259
:10000300E4F59075B0F0E5B064F060F71200767532
:10001300B0F0E5B064F060EBAFB075B00FE5B04F92
:10002300FFC374FF9FFFE4FEEE90004793B5070400
:10003300AD0680040EBE10F0ED90005793F59012BC
:04004300006780BF13
:0300000002008576
:0C008500787FE4F6D8FD758107020003C7
:00000001FF
