:09018F00012700012600012500F2
:10012D00D3EF9400EE9400400DE4FD0DBD02FCEF05
:06013D001F70ED1E80EAB8
:010143002299
:10016D00C2A6C2A58F80D2A7C2A77F017E000201C1
:01017D002D54
:10017E00D2A6C2A58F80D2A7C2A77F017E000201A0
:01018E002D43
:100003007F3812016D7F0C12016D7F0612016D7F27
:0B0013000112016D7F647E0002012DD0
:10015A00120003E4FC74162CF8E6FF12017E0CBCB4
:02016A000FF391
:01016C002270
:10014400759850758920758780758DF3758BF3D2FA
:06015400ACD2AFD28E22F6
:0801990012014412000380FE74
:030023000200B226
:1000B200C0E0C0D075D000C000C004C005C006C0FA
:1000C2000730985874162527F8A699C298741625F1
:1000D20027F8E6F5993099FDC2990527E527C394DB
:1000E2000F403975270012015A752500741725250E
:1000F200F8E6FF74082525F8A6070525E525B40EC0
:10010200EB7FC012016D75250074082525F8E6FF06
:1001120012017E0525E525C3940E40EDD007D006D9
:0B012200D005D004D000D0D0D0E032D7
:03000000020026D5
:0C002600787FE4F6D8FD75812702006D9C
:10003200020199E493A3F8E493A34003F68001F24A
:1000420008DFF48029E493A3F85407240CC8C333CF
:10005200C4540F4420C8834004F456800146F6DF9E
:10006200E4800B010204081020408090018FE47E9E
:10007200019360BCA3FF543F30E509541FFEE49393
:10008200A360010ECF54C025E060A840B8E493A35A
:10009200FAE493A3F8E493A3C8C582C8CAC583CA85
:1000A200F0A3C8C582C8CAC583CADFE9DEE780BE3D
:010198000066
:00000001FF
